:020000020000FC
:200000000DD0FFFFFFFFFFFF04EF04F0FFFFFFFFFFFFFFFFFFFFFFFF0CEF04F0700ED36E80
:20002000400E9B6E550E5E6FAA0E5F6F98929884800E6B6E260E6C6E000E7D6E100E6F6E04
:20004000070ED56ED1D86B98C5D8C4D8F2B404D06B886E506E5007D0F2946B6A6C6A5E6BA9
:200060005F6B00EF04F0A6D80F0AEDE100EE08F0006B016B9FD80F0AF6E00451040A0AE0FE
:200080000451050A01E196D804510027EE6E014FDAD7F0D70053D7E10A51F66EA96E0B51CF
:2000A000F76EAA6E0CC0F8FF00EE0DF00951016FD8B4FF00D59E08510808C5E3FA6AFB6A73
:2000C0000845F92608D00DD014D023D02DD037D008D041D04AD0000E0A6F010E0B6F040EFF
:2000E00046D00900F5CFEEFF012FFBD70951050F3ED0F80EF616080EEECFF5FF0D00E82EB6
:20010000FBD70A00840EA66E5DD80900012FF1D72DD0940EA66E56D8400EF626E86AF72271
:20012000F822012FF6D722D0A66AA680A8CFEEFFA94AAA2A012FF8D70951050F18D0EECF43
:20014000A8FF040EA66E3ED8A6B2FED7A94AAA2A012FF5D70BD0C40EA66EEECFF5FF0C004E
:2001600031D80900012FF7D701D0FF00010E016F0F0E1BD81AD8006B00EE08F0EE50002768
:2001800008D8012FFBD7006D005103D8040E0DD85AD7056F0F0A06E00551040A03E00551AC
:2001A000050A02E1050E01D805510400A4A8FED76D6E120004006BB2FF00A4AAFED76E50F8
:2001C000046F120004005E51A76E5F51A76EA68200001200F2B4120086B4FCD70400F2B464
:2001E000120086A4FCD71200D59EC20ED76EF60ED66AD58E1200FFFFFFFFFFFFFFFFFFFFA7
:20020000FFFFFFFFFFFFFFFFFFFFFFFFFFFFFFFFFFFFFFFFFFFFFFFFFFFFFFFFFFFFFFFFFE
:20022000FFFFFFFFFFFFFFFFFFFFFFFFFFFFFFFFFFFFFFFFFFFFFFFFFFFFFFFFFFFFFFFFDE
:20024000FFFFFFFFFFFFFFFFFFFFFFFFFFFFFFFFFFFFFFFFFFFFFFFFFFFFFFFFFFFFFFFFBE
:20026000FFFFFFFFFFFFFFFFFFFFFFFFFFFFFFFFFFFFFFFFFFFFFFFFFFFFFFFFFFFFFFFF9E
:20080000A7EF59F01200FFFF07EF3DF01200FFFFFFFFFFFFFFFFFFFFC8EF59F01200FFFFAE
:20082000FFFFFFFFFFFFFFFFFFFF1D008EB50000250500000300000082B50000F00100000D
:200840000C0000007EB500001E050000040000006BB50000990400001300000067B5000046
:200860001A0500000400000062B50000FB0300000500000060B500003405000002000000EB
:200880005EB50000320500000200000056B50000ED040000080000004EB50000E50400001C
:2008A000080000004AB50000160500000400000044B500000C0500000600000042B500000B
:2008C000300500000200000025B500004E0400001D0000001AB50000BE0400000B000000FC
:2008E000BAB400008402000060000000B9B40000380500000100000035B40000000200000E
:20090000840000002FB4000006050000060000002DB400002E050000020000002BB400006A
:200920002C0500000200000029B400002A0500000200000026B40000220500000300000072
:20094000B3B30000370500000100000024B4000028050000020000001CB40000DD0400003C
:2009600008000000D4B300005003000048000000D0B300001205000004000000CAB3000032
:200980000005000006000000D9CFE6FFE1CFD9FF81E974E80A0EE66E48EC58F041E9F3501C
:2009A000016EF450026E120EE66E48EC58F041E9F350036EF450046E0D0EE66E66EC58F087
:2009C00041E9F350056EF450066E030EE66E66EC58F041E9F350076EF450086E2A0EE66E58
:2009E0002AEC58F041E9F350096EF4500A6E2E0EE66E2AEC58F041E9F3500B6EF4500C6E67
:200A00000D6A0E6A0F6A106A116A126A136A146A156A166A176A186A196A1A6A1B6A1C6AEE
:200A20001D6A1E6A1F6A206A236A246A256A266A276A286A296A2A6A2B6A2C6A2D6A2E6AB6
:200A40002F6A306A316A326A336A346A02340DE3E668E66801EBE6FF02EBE6FF1FEC20F071
:200A6000E552E550026EE750016E010E051801E1065001E00AD10401010E831901E184516D
:200A800001E003D1050EE66E6AEC57F041E9FCC130F4FDC131F4FEC132F4FFC133F40401DE
:200AA000305131113211331101E0EFD0010E031801E1045001E0E9D00401836B846B256AE1
:200AC000266A030E255C000E265801E3C2D00401A40E306FAC0E316F000E326F020EE66E2F
:200AE000E66AE66A25EBE6FF26EBE6FFE66A53EC20F0E552E5CF35F4E5CF34F4E7CF33F4FF
:200B0000040130513325F36E31513421F46E32513521F86EF4CFF7FFF3CFF6FF0900F55060
:200B2000276E0A00F550286E27EBE6FF28EBE6FF000EE66EE66A0BEBE6FF0CEBE6FF41ECB6
:200B400012F046E9F3CF30F4F4CF31F404013051116E3151126E136A146A27EBE6FF28EB8A
:200B6000E6FFE66AE66A11EBE6FF12EBE6FF13EBE6FF14EBE6FFB3EC20F0E552E5CF33F4A5
:200B8000E5CF32F4E5CF31F4E7CF30F404013051116E3151126E3251136E3351146E6BC488
:200BA000E6FF6CC4E6FFE66AE66A11EBE6FF12EBE6FF13EBE6FF14EBE6FFB3EC20F0E5522B
:200BC000E5CF33F4E5CF32F4E5CF31F4E7CF30F404013051116E3151126E3251136E33511E
:200BE000146E100EE66E270EE66EE66AE66A11EBE6FF12EBE6FF13EBE6FF14EBE6FFABECB7
:200C00001FF0E552E5CF33F4E5CF32F4E5CF31F4E7CF30F404013051116E3151126E32519C
:200C2000136E3351146E25EBE9FF26EBEAFF010ED890E936EA36E806FBE1840EE926030E09
:200C4000EA2211EBEEFF12EBEDFF252A000E262238D70BEB75F40CEB76F404016F6B706B88
:200C6000716B726B04016D6B6E6B0401776B786B0501010E376F036A046A000EE66EE66AF3
:200C8000120EE66ECDEC57F043E90B505A080A0E0C5402E315EF0DF0040175510B5C7651A0
:200CA0000C580AE20B50755D04016D6F0C500401765904016E6F03D004016D6B6E6B010E2C
:200CC000031801E1045001E083D03C0EE66EE66AE66AE66A720EE66EE66AE66AE66A01EB51
:200CE00034F402EB35F40401366B376B35AF02D03669376934C4E6FF35C4E6FF36C4E6FFDF
:200D000037C4E6FFB3EC20F0ABEC1FF0E552E5CF33F4E5CF32F4E5CF31F4E7CF30F46F0E82
:200D2000E96E040EEA6EEE5004013027EE503123EE503223EE50332330C46FF431C470F4EF
:200D400032C471F433C472F4E80EE66E030EE66EE66AE66A6BC4E6FF6CC4E6FFE66AE66AC3
:200D6000B3EC20F0E552E5CF33F4E5CF32F4E5CF31F4E7CF30F46F0EE96E040EEA6EEE50A9
:200D80000401305DEE503159EE503259EE50335917E2E80EE66E030EE66EE66AE66A6BC4EF
:200DA000E6FF6CC4E6FFE66AE66AB3EC20F0E552E5CF72F4E5CF71F4E5CF70F4E7CF6FF44F
:200DC000000EE66EE66A120EE66ECDEC57F043E904016D516408000E6E5502E315EF0DF0DB
:200DE000010E031801E1045002E015EF0DF0256A266A030E255C000E265801E3C2D00401F8
:200E0000A40E306FAC0E316F000E326F020EE66EE66AE66A25EBE6FF26EBE6FFE66A53ECFA
:200E200020F0E552E5CF35F4E5CF34F4E7CF33F4040130513325F36E31513421F46E3251DA
:200E40003521F86EF4CFF7FFF3CFF6FF0900F550276E0A00F550286E27EBE6FF28EBE6FFAF
:200E6000000EE66EE66A0BEBE6FF0CEBE6FF41EC12F046E9F3CF30F4F4CF31F40401305157
:200E8000116E3151126E136A146A27EBE6FF28EBE6FFE66AE66A11EBE6FF12EBE6FF13EB86
:200EA000E6FF14EBE6FFB3EC20F0E552E5CF33F4E5CF32F4E5CF31F4E7CF30F40401305195
:200EC000116E3151126E3251136E3351146E6BC4E6FF6CC4E6FFE66AE66A11EBE6FF12EBE0
:200EE000E6FF13EBE6FF14EBE6FFB3EC20F0E552E5CF33F4E5CF32F4E5CF31F4E7CF30F4F8
:200F000004013051116E3151126E3251136E3351146E100EE66E270EE66EE66AE66A11EB29
:200F2000E6FF12EBE6FF13EBE6FF14EBE6FFABEC1FF0E552E5CF33F4E5CF32F4E5CF31F4B8
:200F4000E7CF30F404013051116E3151126E3251136E3351146E25EBE9FF26EBEAFF010EA5
:200F6000D890E936EA36E806FBE18A0EE926030EEA2211EBEEFF12EBEDFF252A000E2622C5
:200F800038D7256A266A030E255C000E26583DE225EBE9FF26EBEAFF010ED890E936EA363E
:200FA000E806FBE1840EE926030EEA22EECF32F4EFCF33F425EBE9FF26EBEAFF010ED89078
:200FC000E936EA36E806FBE18A0EE926030EEA22EE500401325D306FEE503359316F25EB59
:200FE000E9FF26EBEAFF010ED890E936EA36E806FBE1900EE926030EEA2230C4EEFF31C4EF
:20100000EDFF252A000E2622BED7256A266AE80EE66E030EE66EE66AE66A25EBE9FF26EB33
:20102000EAFF010ED890E936EA36E806FBE1900EE926030EEA22EECFE6FFEECFE6FFE66AE9
:20104000E66AB3EC20F0E552E5CF33F4E5CF32F4E5CF31F4E7CF30F404013051196E315163
:201060001A6E32511B6E33511C6E04016F51195C70511A5871511B5872511C5837E3030ECA
:20108000255C000E265832E2252A000E2622E80EE66E030EE66EE66AE66A25EBE9FF26EB32
:2010A000EAFF010ED890E936EA36E806FBE1900EE926030EEA22EECFE6FFEECFE6FFE66A69
:2010C000E66AB3EC20F0E552E5CF33F4E5CF32F4E5CF31F4E7CF30F404013051196E3151E3
:2010E0001A6E32511B6E33511C6EBFD72550261001E0D6D06E0E316E326A0401A40E306F79
:20110000AC0E316F000E326F020EE66EE66AE66A2528366F000E2620376F36C4E6FF37C4FC
:20112000E6FFE66A53EC20F0E552E5CF35F4E5CF34F4E7CF33F4040130513325F36E31519D
:201140003421F46E32513521F86EF4CFF7FFF3CFF6FF0900F550336E0A00F550346EA40E97
:20116000306FAC0E316F000E326F020EE66EE66AE66A25EBE6FF26EBE6FFE66A53EC20F039
:20118000E552E5CF35F4E5CF34F4E7CF33F4040130513325F36E31513421F46E3251352131
:2011A000F86EF4CFF7FFF3CFF6FF0900F550276E0A00F550286E25EBE9FF26EBEAFF010E90
:2011C000D890E936EA36E806FBE1900EE926030EEA22EECFE6FFEECFE6FFE66AE66A6FC4BD
:2011E000E6FF70C4E6FF71C4E6FF72C4E6FFABEC1FF0E552E5CF33F4E5CF32F4E5CF31F451
:20120000E7CF30F4040130510D6E31510E6E32510F6E3351106E27EBE6FF28EBE6FFE66AB4
:20122000E66A0DEBE6FF0EEBE6FF0FEBE6FF10EBE6FFB3EC20F0E552E5CF33F4E5CF32F449
:20124000E5CF31F4E7CF30F4040130510D6E31510E6E32510F6E3351106EE80EE66E030E7F
:20126000E66EE66AE66A0DEBE6FF0EEBE6FF0FEBE6FF10EBE6FFABEC1FF0E552E5CF33F448
:20128000E5CF32F4E5CF31F4E7CF30F4040130510D6E31510E6E32510F6E3351106EA3D24B
:2012A000030E255C000E265801E2DCD00401A40E306FAC0E316F000E326F020EE66EE66A6E
:2012C000E66A2504366F000E2658376F36C4E6FF37C4E6FFE66A53EC20F0E552E5CF35F44C
:2012E000E5CF34F4E7CF33F4040130513325F36E31513421F46E32513521F86EF4CFF7FFC5
:20130000F3CFF6FF0900F550316E0A00F550326E320E336E346AA40E306FAC0E316F000E02
:20132000326F020EE66EE66AE66A2504366F000E2658376F36C4E6FF37C4E6FFE66A53ECBA
:2013400020F0E552E5CF35F4E5CF34F4E7CF33F4040130513325F36E31513421F46E3251B5
:201360003521F86EF4CFF7FFF3CFF6FF0900F550276E0A00F550286E2504E96E000E26586D
:20138000EA6E010ED890E936EA36E806FBE1900EE926030EEA22EECFE6FFEECFE6FFE66A17
:2013A000E66A6FC4E6FF70C4E6FF71C4E6FF72C4E6FFABEC1FF0E552E5CF33F4E5CF32F4E5
:2013C000E5CF31F4E7CF30F4040130510D6E31510E6E32510F6E3351106E27EBE6FF28EB4F
:2013E000E6FFE66AE66A0DEBE6FF0EEBE6FF0FEBE6FF10EBE6FFB3EC20F0E552E5CF33F42D
:20140000E5CF32F4E5CF31F4E7CF30F4040130510D6E31510E6E32510F6E3351106EE80E48
:20142000E66E030EE66EE66AE66A0DEBE6FF0EEBE6FF0FEBE6FF10EBE6FFABEC1FF0E552FC
:20144000E5CF33F4E5CF32F4E5CF31F4E7CF30F4040130510D6E31510E6E32510F6E3351A1
:20146000106EC1D10401A40E306FAC0E316F000E326F020EE66EE66AE66A2504366F000E1D
:201480002658376F36C4E6FF37C4E6FFE66A53EC20F0E552E5CF35F4E5CF34F4E7CF33F4FD
:2014A000040130513325F36E31513421F46E32513521F86EF4CFF7FFF3CFF6FF0900F550B7
:2014C000316E0A00F550326EA40E306FAC0E316F000E326F020EE66EE66AE66A25EBE6FF2B
:2014E00026EBE6FFE66A53EC20F0E552E5CF35F4E5CF34F4E7CF33F4040130513325F36E4B
:2015000031513421F46E32513521F86EF4CFF7FFF3CFF6FF0900F550336E0A00F550346E03
:20152000A40E306FAC0E316F000E326F020EE66EE66AE66A2504366F000E2658376F36C453
:20154000E6FF37C4E6FFE66A53EC20F0E552E5CF35F4E5CF34F4E7CF33F40401305133257C
:20156000F36E31513421F46E32513521F86EF4CFF7FFF3CFF6FF0900F550296E0A00F550EE
:201580002A6EA40E306FAC0E316F000E326F020EE66EE66AE66A25EBE6FF26EBE6FFE66A1A
:2015A00053EC20F0E552E5CF35F4E5CF34F4E7CF33F4040130513325F36E31513421F46E97
:2015C00032513521F86EF4CFF7FFF3CFF6FF0900F5502B6E0A00F5502C6E2504E96E000EFE
:2015E0002658EA6E010ED890E936EA36E806FBE1900EE926030EEA22EE502D6EED502E6E19
:2016000025EBE9FF26EBEAFF010ED890E936EA36E806FBE1900EE926030EEA22EE502F6EB3
:20162000ED50306E04012B50295C306F2C502A58316F30511D6E31511E6E1F6A206AE80E6A
:20164000E66E030EE66EE66AE66A1DEBE6FF1EEBE6FF1FEBE6FF20EBE6FFB3EC20F0E55291
:20166000E5CF33F4E5CF32F4E5CF31F4E7CF30F4040130511D6E31511E6E32511F6E33514F
:20168000206E2F502D5C346F30502E58356F34C4E6FF35C4E6FFE66AE66A1DEBE6FF1EEB16
:2016A000E6FF1FEBE6FF20EBE6FFABEC1FF0E552E5CF33F4E5CF32F4E5CF31F4E7CF30F421
:2016C000040130511D6E31511E6E32511F6E3351206EE80EE66E030EE66EE66AE66A2FEB60
:2016E000E6FF30EBE6FFE66AE66AB3EC20F0E552E5CF3BF4E5CF3AF4E5CF39F4E7CF38F4F7
:201700006F0EE96E040EEA6E04013851EE5C346F3951EE58356F3A51EE58366F3B51EE5854
:20172000376F34C4E6FF35C4E6FF36C4E6FF37C4E6FF1DEBE6FF1EEBE6FF1FEBE6FF20EBB4
:20174000E6FFB3EC20F0E552E5CF33F4E5CF32F4E5CF31F4E7CF30F4040130510D6E3151D3
:201760000E6E32510F6E3351106E400EE66E420EE66E0F0EE66EE66A0DEBE6FF0EEBE6FF29
:201780000FEBE6FF10EBE6FFABEC1FF0E552E5CF33F4E5CF32F4E5CF31F4E7CF30F4040140
:2017A00030510D6E31510E6E32510F6E3351106E2BEB30F42CEB31F4326B336BD9500D0F37
:2017C000E96EDACFEAFFEE503027EE503123EE503223EE50332330510D6E31510E6E325155
:2017E0000F6E3351106E31EBE6FF32EBE6FFE66AE66AFC0EE350D8800D54FD0EE3500E5431
:20180000FE0EE3500F54FF0EE350105444E90BE231EB30F432EB31F430510D6E31510E6EEC
:201820000F6A106A1ED033EBE6FF34EBE6FFE66AE66AFC0EE3500D5CFD0EE3500E58FE0ECA
:20184000E3500F58FF0EE350105844E90AE233EB30F434EB31F430510D6E31510E6E0F6A34
:20186000106A0DEBE6FF0EEBE6FF2B0EE66EAEEC57F043E90501370532E1376B020EE66E3E
:20188000E66A0A0EE66EE66A77C4E6FF78C4E6FFC1EC1EF01FEC20F0E552E5CFEAFFE7CF9B
:2018A000E9FF850EE926040EEA2209EBEEFF0AEBEDFF0A0EE66EE66A77C430F478C431F442
:2018C0000401302B000E312330C4E6FF31C4E6FFC1EC1EF0E552E5CF78F4E7CF77F4020E50
:2018E000E66EE66A0A0EE66EE66A77C4E6FF78C4E6FFC1EC1EF01FEC20F0E552E5CFEAFF9D
:20190000E7CFE9FF850EE926040EEA220DEBEEFF0EEBEDFF0A0EE66EE66A77C430F478C448
:2019200031F40401302B000E312330C4E6FF31C4E6FFC1EC1EF0E552E5CF78F4E7CF77F4DA
:20194000216A226A04017751215C7851225816E221EBE9FF22EBEAFF010ED890E936EA364B
:20196000E806FBE1850EE926040EEA22EE502326ED502422212A000E2222E4D777C4E6FF5B
:2019800078C4E6FF23EBE6FF24EBE6FFBEEC1EF0E552E550246EE750236E23EBE6FF24EBBF
:2019A000E6FF2A0EE66EAEEC57F043E923EBE6FF200EE66EBFEC58F042E9256A266A030EE6
:2019C000255C000E265828E225EBE9FF26EBEAFF010ED890E936EA36E806FBE18A0EE926D7
:2019E000030EEA22EECF30F4EFCF31F425EBE9FF26EBEAFF010ED890E936EA36E806FBE194
:201A0000840EE926030EEA2230C4EEFF31C4EDFF252A000E2622D3D704016F6B706B716B61
:201A2000726B0BEB75F40CEB76F475E9E7CFD9FF1200D9CFE6FFE1CFD9FF81E95BE81E0E1D
:201A4000E66E2AEC58F041E9F350016EF450026E030EE66E66EC58F041E9F350036EF45023
:201A6000046E040EE66E66EC58F041E9F350056EF450066E076A086A096A0A6A0B6A0C6AA7
:201A80000D6A0E6A0F6A106A116A126A136A146A156A166A176A186A196A1A6A1B6A0401DF
:201AA000BE050BE1E80EE66E030EE66EE66EBCEC56F043E90401BE6B1DD0030EE66E45ECA9
:201AC00057F041E9F3501A6EF4501B6E1A501B1009E1010EE66EE66A090EE66EECEC57F041
:201AE00043E908D0000EE66EE66A090EE66EECEC57F043E904011851076E1951086E030EA6
:201B0000E66EE66A07EBE6FF08EBE6FF1FEC20F0E552E550086EE750076E04010051072646
:201B200001510822040EE66EE66A07EBE6FF08EBE6FFBEEC1EF0E552E550086EE750076E7E
:201B400000C418F401C419F4010EE66E07EBE6FF08EBE6FF39EC2EF043E9F350096EF45064
:201B60000A6E09EBE6FF0AEBE6FFE66ACDEC57F043E909EBE6FF0AEBE6FF010EE66EAEEC0E
:201B800057F043E904011C51076E1D51086E030EE66EE66A07EBE6FF08EBE6FF1FEC20F088
:201BA000E552E550086EE750076E04010451072605510822040EE66EE66A07EBE6FF08EB10
:201BC000E6FFBEEC1EF0E552E550086EE750076E04C41CF405C41DF4040EE66E07EBE6FFEB
:201BE00008EBE6FF09EC30F043E9F350096EF4500A6E09EBE6FF0AEBE6FF010EE66ECDEC87
:201C000057F043E904010851076E0951086EC1C4E9FFC2C4EAFF010ED890E936EA36E8062E
:201C2000FBE1000EE926010EEA2207EBEEFF08EBEDFFE66A07EBE6FF08EBE6FF09EC30F0BE
:201C400043E9F350096EF4500A6E09EBE6FF0AEBE6FF020EE66ECDEC57F043E90401225127
:201C6000076E2351086E030EE66EE66A07EBE6FF08EBE6FF1FEC20F0E552E550086EE7506D
:201C8000076E04010A5107260B510822040EE66EE66A07EBE6FF08EBE6FFBEEC1EF0E55268
:201CA000E550086EE750076E04010A0EBF5D000EC05912E2BFC4E9FFC0C4EAFF010ED8902A
:201CC000E936EA36E806FBE1C80EE926010EEA220AC4EEFF0BC4EDFF0AC422F40BC423F4BB
:201CE000E66A07EBE6FF08EBE6FF20EC4DF043E9F350096EF4500A6E09EBE6FF0AEBE6FF47
:201D0000030EE66ECDEC57F043E904012451076E2551086E030EE66EE66A07EBE6FF08EBD8
:201D2000E6FF1FEC20F0E552E550086EE750076E04010C5107260D510822040EE66EE66A48
:201D400007EBE6FF08EBE6FFBEEC1EF0E552E550086EE750076E04010A0EBF5D000EC0592E
:201D600012E2BFC4E9FFC0C4EAFF010ED890E936EA36E806FBE1DC0EE926010EEA220CC433
:201D8000EEFF0DC4EDFF0CC424F40DC425F4060EE66E07EBE6FF08EBE6FF09EC30F043E96F
:201DA000F350096EF4500A6E09EBE6FF0AEBE6FF040EE66ECDEC57F043E904012651076E77
:201DC0002751086E030EE66EE66A07EBE6FF08EBE6FF1FEC20F0E552E550086EE750076E08
:201DE00004010E5107260F510822040EE66EE66A07EBE6FF08EBE6FFBEEC1EF0E552E5503F
:201E0000086EE750076E0EC426F40FC427F4E66A07EBE6FF08EBE6FF39EC2EF043E9F35015
:201E2000096EF4500A6E09EBE6FF0AEBE6FF050EE66ECDEC57F043E909EBE6FF0AEBE6FF76
:201E4000100EE66EAEEC57F043E904012851076E2951086E030EE66EE66A07EBE6FF08EBA1
:201E6000E6FF1FEC20F0E552E550086EE750076E04011051072611510822040EE66EE66AFF
:201E800007EBE6FF08EBE6FFBEEC1EF0E552E550086EE750076E04010A0EBF5D000EC059ED
:201EA00012E2BFC4E9FFC0C4EAFF010ED890E936EA36E806FBE1A00EE926010EEA2210C42A
:201EC000EEFF11C4EDFF10C428F411C429F4010EE66E07EBE6FF08EBE6FF09EC30F043E91F
:201EE000F350096EF4500A6E09EBE6FF0AEBE6FF060EE66ECDEC57F043E904012A51076E30
:201F00002B51086E030EE66EE66A07EBE6FF08EBE6FF1FEC20F0E552E550086EE750076EC2
:201F200004011251072613510822040EE66EE66A07EBE6FF08EBE6FFBEEC1EF0E552E550F5
:201F4000086EE750076E12C42AF413C42BF4050EE66E07EBE6FF08EBE6FF09EC30F043E91E
:201F6000F350096EF4500A6E09EBE6FF0AEBE6FF070EE66ECDEC57F043E904012C51076EAC
:201F80002D51086E030EE66EE66A07EBE6FF08EBE6FF1FEC20F0E552E550086EE750076E40
:201FA00004011451072615510822040EE66EE66A07EBE6FF08EBE6FFBEEC1EF0E552E55071
:201FC000086EE750076E14C42CF415C42DF4030EE66E07EBE6FF08EBE6FF09EC30F043E998
:201FE000F350096EF4500A6E09EBE6FF0AEBE6FF080EE66ECDEC57F043E904012E51076E29
:202000002F51086E030EE66EE66A07EBE6FF08EBE6FF1FEC20F0E552E550086EE750076EBD
:2020200004011651072617510822040EE66EE66A07EBE6FF08EBE6FFBEEC1EF0E552E550EC
:20204000086EE750076E04010A0EBF5D000EC05912E2BFC4E9FFC0C4EAFF010ED890E9369C
:20206000EA36E806FBE1B40EE926010EEA2216C4EEFF17C4EDFF16C42EF417C42FF4020EF2
:20208000E66E07EBE6FF08EBE6FF09EC30F043E9F350096EF4500A6E09EBE6FF0AEBE6FFD3
:2020A000090EE66ECDEC57F043E90401BF2B000EC023C12BC223500EE66EE66AC1C4E6FF6C
:2020C000C2C4E6FFC1EC1EF0E552E5CFC2F4E7CFC1F40D6A0E6A0F6A106A196A500E195C96
:2020E00027E2EA6A1934FE0BE96EEA36000EE926010EEA22EECF30F4EFCF31F40401326B18
:20210000336BD9500D0FE96EDACFEAFFEE503027EE503123EE503223EE50332330510D6EA9
:2021200031510E6E32510F6E3351106E192AD6D7500EE66EE66AE66AE66A0DEBE6FF0EEB37
:20214000E6FF0FEBE6FF10EBE6FFABEC1FF0E552E5CF33F4E5CF32F4E5CF31F4E7CF30F496
:20216000040130510D6E31510E6E32510F6E3351106EE66A0DEBE6FF0EEBE6FF09EC30F03E
:2021800043E9F3CF30F4F4CF31F4040130510D6E31510E6E0F6A106A0DEBE6FF0EEBE6FF98
:2021A0000F0EE66ECDEC57F043E904010A0EBF5D000EC05901E2D4D0196A0A0E195C36E273
:2021C000EA6A1934FE0BE96EEA36A00EE926010EEA22EE501126ED501222EA6A1934FE0B76
:2021E000E96EEA36B40EE926010EEA22EE501326ED501422EA6A1934FE0BE96EEA36DC0E87
:20220000E926010EEA22EE501526ED501622EA6A1934FE0BE96EEA36C80EE926010EEA2285
:20222000EE501726ED501822192AC7D70A0EE66EE66A11EBE6FF12EBE6FFBEEC1EF0E5525D
:20224000E550126EE750116E010EE66E11EBE6FF12EBE6FF09EC30F043E9F350096EF450AE
:202260000A6E09EBE6FF0AEBE6FF100EE66ECDEC57F043E90A0EE66EE66A13EBE6FF14EBF7
:20228000E6FFBEEC1EF0E552E550146EE750136E020EE66E13EBE6FF14EBE6FF09EC30F0BB
:2022A00043E9F350096EF4500A6E09EBE6FF0AEBE6FF0D0EE66ECDEC57F043E909EBE6FF55
:2022C0000AEBE6FFE66AAEEC57F043E90A0EE66EE66A15EBE6FF16EBE6FFBEEC1EF0E55251
:2022E000E550166EE750156E060EE66E15EBE6FF16EBE6FF09EC30F043E9F350096EF450F9
:202300000A6E09EBE6FF0AEBE6FF0E0EE66ECDEC57F043E90A0EE66EE66A17EBE6FF18EB50
:20232000E6FFBEEC1EF0E552E550186EE750176EE66A17EBE6FF18EBE6FF20EC4DF043E9BE
:20234000F350096EF4500A6E09EBE6FF0AEBE6FF0B0EE66ECDEC57F043E90401BF6BC06B61
:20236000010E031801E1045005E0010E051801E1065073E1C32B000EC42322C430F423C48C
:2023800031F40401326B336B0401C551040130270401C651040131230401C7510401322375
:2023A0000401C8510401332330C4C5F431C4C6F432C4C7F433C4C8F40401700EC35D170E1C
:2023C000C4594AE3700EE66E170EE66EE66AE66AC5C4E6FFC6C4E6FFC7C4E6FFC8C4E6FF0A
:2023E000ABEC1FF0E552E5CFC8F4E5CFC7F4E5CFC6F4E7CFC5F40401C551076EC651086E27
:20240000E66A07EBE6FF08EBE6FF20EC4DF043E9F350096EF4500A6E09EBE6FF0AEBE6FF1F
:202420000A0EE66ECDEC57F043E90401C56BC66BC76BC86BC36BC46B010EE66EE66A120E09
:20244000E66ECDEC57F043E9010EE66EE66A130EE66ECDEC57F043E910D0000EE66EE66A16
:20246000120EE66ECDEC57F043E9000EE66EE66A130EE66ECDEC57F043E95CE9E7CFD9FF96
:202480001200D9CFE6FFE1CFD9FF87E95EE8020EE66E2AEC58F041E9F350076EF450086E01
:2024A000096A0A6A0B6A0C6A0D6A0E6A0F6A106A116A126A136A146A156A166A176A186A74
:2024C000196A1A6A1B6A1C6A1D6A1E6A1F6A206A216A226A236A246A0401A40E306FAC0E86
:2024E000316F000E326F020EE66EE66AE66A19EBE6FF1AEBE6FFE66A53EC20F0E552E5CF2C
:2025000035F4E5CF34F4E7CF33F4040130513325F36E31513421F46E32513521F86EF4CF5F
:20252000F7FFF3CFF6FF00500900F55C01500A00F55809E3030E195C000E1A5804E2192A81
:20254000000E1A22C9D719501A1067E1176A186A0D0E175C000E18585FE204013C0E356F73
:20256000AC0E366F000E376F080EE66EE66AE66A17EBE6FF18EBE6FFE66A53EC20F0E55299
:20258000E5CF3AF4E5CF39F4E7CF38F4040135513825326F36513921336F37513A21346F04
:2025A000020EE66EE66AE66A19EBE6FF1AEBE6FFE66A53EC20F0E552E5CF3DF4E5CF3CF4A5
:2025C000E7CF3BF4040132513B25F36E33513C21F46E34513D21F86EF4CFF7FFF3CFF6FFD1
:2025E0000900F5CF30F40800F5CF31F417EBE9FF18EBEAFF020ED890E936EA36E806FBE1A2
:20260000500EE926030EEA2230C4EEFF31C4EDFF172A000E18229CD78FD2030E195C000E7D
:202620001A586CE3176A186A0D0E175C000E185864E204013C0E356FAC0E366F000E376F7E
:20264000080EE66EE66AE66A17EBE6FF18EBE6FFE66A53EC20F0E552E5CF3AF4E5CF39F408
:20266000E7CF38F4040135513825326F36513921336F37513A21346F020EE66EE66AE66AE2
:2026800019043E6F000E1A583F6F3EC4E6FF3FC4E6FFE66A53EC20F0E552E5CF3DF4E5CF04
:2026A0003CF4E7CF3BF4040132513B25F36E33513C21F46E34513D21F86EF4CFF7FFF3CFB5
:2026C000F6FF0900F5CF30F40800F5CF31F417EBE9FF18EBEAFF020ED890E936EA36E806A8
:2026E000FBE1500EE926030EEA2230C4EEFF31C4EDFF172A000E182297D71ED2A40E306F7A
:20270000AC0E316F000E326F020EE66EE66AE66A1904366F000E1A58376F36C4E6FF37C4EA
:20272000E6FFE66A53EC20F0E552E5CF35F4E5CF34F4E7CF33F4040130513325F36E315187
:202740003421F46E32513521F86EF4CFF7FFF3CFF6FF0900F550116E0A00F550126EA40EC5
:20276000306FAC0E316F000E326F020EE66EE66AE66A19EBE6FF1AEBE6FFE66A53EC20F03B
:20278000E552E5CF35F4E5CF34F4E7CF33F4040130513325F36E31513421F46E325135211B
:2027A000F86EF4CFF7FFF3CFF6FF0900F550136E0A00F550146EE80EE66E030EE66EE66AA4
:2027C000E66A1350005C346F14500158356F34C4E6FF35C4E6FFE66AE66AB3EC20F0E552A5
:2027E000E5CF33F4E5CF32F4E5CF31F4E7CF30F404013051096E31510A6E32510B6E3351FA
:202800000C6E1350115C346F14501258356F34C4E6FF35C4E6FFE66AE66A09EBE6FF0AEB30
:20282000E6FF0BEBE6FF0CEBE6FFABEC1FF0E552E5CF33F4E5CF32F4E5CF31F4E7CF30F4B7
:2028400004013051096E31510A6E32510B6E33510C6E176A186A0D0E175C000E185801E394
:202860006BD104013C0E376FAC0E386F000E396F080EE66EE66AE66A17EBE6FF18EBE6FF37
:20288000E66A53EC20F0E552E5CF3CF4E5CF3BF4E7CF3AF4040137513A25346F38513B2143
:2028A000356F39513C21366F020EE66EE66AE66A1904406F000E1A58416F40C4E6FF41C4FA
:2028C000E6FFE66A53EC20F0E552E5CF3FF4E5CF3EF4E7CF3DF4040134513D25F36E3551B6
:2028E0003E21F46E36513F21F86EF4CFF7FFF3CFF6FF0900F5CF32F40800F5CF33F43C0E2A
:20290000456FAC0E466F000E476F080EE66EE66AE66A17EBE6FF18EBE6FFE66A53EC20F058
:20292000E552E5CF4AF4E5CF49F4E7CF48F4040145514825426F46514921436F47514A211C
:20294000446F020EE66EE66AE66A19EBE6FF1AEBE6FFE66A53EC20F0E552E5CF4DF4E5CF6E
:202960004CF4E7CF4BF4040142514B25F36E43514C21F46E44514D21F86EF4CFF7FFF3CF72
:20298000F6FF0900F550325D306F0900F5503359316F30510D6E31510E6E0F6A106A09EB6B
:2029A000E6FF0AEBE6FF0BEBE6FF0CEBE6FF0DEBE6FF0EEBE6FF0FEBE6FF10EBE6FFB3EC88
:2029C00020F0E552E5CF33F4E5CF32F4E5CF31F4E7CF30F4040130510D6E31510E6E3251C6
:2029E0000F6E3351106EE80EE66E030EE66EE66AE66A3C0E376FAC0E386F000E396F080EEC
:202A0000E66EE66AE66A17EBE6FF18EBE6FFE66A53EC20F0E552E5CF3CF4E5CF3BF4E7CFA0
:202A20003AF4040137513A25346F38513B21356F39513C21366F020EE66EE66AE66A19EBBC
:202A4000E6FF1AEBE6FFE66A53EC20F0E552E5CF3FF4E5CF3EF4E7CF3DF4040134513D2531
:202A6000F36E35513E21F46E36513F21F86EF4CFF7FFF3CFF6FF0900F5CFE6FF0900F5CF72
:202A8000E6FFE66AE66AB3EC20F0E552E5CF33F4E5CF32F4E5CF31F4E7CF30F4D9500D0F1E
:202AA000E96EDACFEAFFEE5004013027EE503123EE503223EE50332330510D6E31510E6EE0
:202AC00032510F6E3351106EE80EE66E030EE66EE66AE66A0DEBE6FF0EEBE6FF0FEBE6FF0B
:202AE00010EBE6FFABEC1FF0E552E5CF33F4E5CF32F4E5CF31F4E7CF30F4040130510D6EB0
:202B000031510E6E32510F6E3351106E17EBE9FF18EBEAFF020ED890E936EA36E806FBE15E
:202B2000500EE926030EEA220DEBEEFF0EEBEDFF172A000E18228FD6025003105BE0025061
:202B40006408236E000E0354246E176A186A0D0E175C000E18584EE217EBE9FF18EBEAFF6C
:202B6000020ED890E936EA36E806FBE1500EE926030EEA22020EE926000EEA220250EE5C75
:202B8000216E0350ED58226E640EE66EE66A21EBE6FF22EBE6FF1FEC20F0E552E550226E6E
:202BA000E750216E23EBE6FF24EBE6FF21EBE6FF22EBE6FF76EC1EF0E552E550226EE750E2
:202BC000216E17EBE9FF18EBEAFF020ED890E936EA36E806FBE1500EE926030EEA22020E75
:202BE000E926000EEA2221EBEEFF22EBEDFF172A1822ADD703018051045C8151055804E370
:202C0000640E156E166A38D10450505D0550515903E3156A166A30D1176A186A17EBE9FF63
:202C200018EBEAFF020ED890E936EA36E806FBE1500EE926030EEA22EE50045CED50055865
:202C400009E30D0E175C000E185804E2172A000E1822E4D71704E96E000E1858EA6E020EFA
:202C6000D890E936EA36E806FBE1500EE926030EEA22EECFE6FFEECFE6FF17EBE9FF18EB28
:202C8000EAFF020ED890E936EA36E806FBE1500EE926030EEA22FE0EE350EE5C1B6E41E904
:202CA000E550ED581C6E1704E96E000E1858EA6E020ED890E936EA36E806FBE1500EE926DA
:202CC000030EEA22020EE926000EEA22EECFE6FFEECFE6FF17EBE9FF18EBEAFF020ED8900C
:202CE000E936EA36E806FBE1500EE926030EEA22020EE926000EEA22FE0EE350EE5C156EFC
:202D000041E9E550ED58166E1BEB38F41CEB39F404013A6B3B6B39AF02D03A693B6938C4D8
:202D2000E6FF39C4E6FF3AC4E6FF3BC4E6FFA00EE66E860EE66E010EE66EE66A15EB34F440
:202D400016EB35F4366B376B35AF02D03669376934C4E6FF35C4E6FF36C4E6FF37C4E6FF97
:202D6000B3EC20F04DEC1FF0E552E5CF33F4E5CF32F4E5CF31F4E7CF30F4040130511D6EAC
:202D800031511E6E32511F6E3351206E1704E96E000E1858EA6E020ED890E936EA36E80616
:202DA000FBE1500EE926030EEA22EE50045C1B6EED5005581C6EE80EE66E030EE66EE66A63
:202DC000E66A1BEB34F41CEB35F40401366B376B35AF02D03669376934C4E6FF35C4E6FF4D
:202DE00036C4E6FF37C4E6FF1DEBE6FF1EEBE6FF1FEBE6FF20EBE6FFB3EC20F04DEC1FF063
:202E0000E552E5CF33F4E5CF32F4E5CF31F4E7CF30F4640EE66EE66A1704E96E000E18580D
:202E2000EA6E020ED890E936EA36E806FBE1500EE926030EEA22020EE926000EEA22EECF39
:202E4000E6FFEECFE6FF1FEC20F00401FE0EE3503025156E41E9E5503121166E640EE66EB9
:202E6000E66A15EBE6FF16EBE6FF76EC1EF0E552E550166EE750156E020E071801E10850B4
:202E80000BE0630ED89016BE03D0155C000E165803E3630E156E166A163402E3156A166A52
:202EA00015EBF3FF16EBF4FF00D05FE9E7CFD9FF120090DB86E90150010600090CE002EB60
:202EC000E6FF03EBE6FF00EBE6FF69DBF4E1311DF2E1010E01D0000E41E9E5CFDAFFE7CFD5
:202EE000D9FF120077DB89E97BE80A6A0B6A02EBF6FF03EBF7FF04EBF8FF0800F550096E68
:202F0000095001E12DD3250E095C01E01BD30C6A0D6A0E6A0F6A106A2DDB2D0E095C0CE023
:202F20002B0E095C09E0200E095C06E0230E095C03E0300E095C15E10950300A10E0130ADF
:202F40000CE0030A08E00B0A04E0060AE5E10C80E3D70C82E1D70C84DFD70C86DDD70C8815
:202F6000DBD72A0E095C13E1A5DB0DE30C801CEB30F41DEB31F40401306D311F000E312366
:202F800030510D6E02D09CEB0DF0F4DA07D0126A3FDB02E06BDBFCD792EB0DF00CB00C98CF
:202FA0002E0E095C15E1E6DA2A0E095C08E182DB04E29CEB0EF0010E0F6EDCDA09D0126AD5
:202FC00027DB02E053DBFCD792EB0EF0010E0F6E680E095C07E1CEDA680E095C1DE1030EB0
:202FE000106E19D0740E095C16E07A0E095C13E0480E095C06E0540E095C03E05A0E095C95
:2030000002E1020E07D06C0E095C03E06A0E095C03E1010E106EAEDA09506E0A01E16ED25B
:203020001E0A01E128D1200A01E125D13F0A01E1FDD01A0A01E1FAD00D0A01E1F7D0200AD9
:2030400001E1F4D03A0A01E1F1D0200A01E1EED0260A01E1EAD00D0A01E1E7D01A0A01E197
:203060009ED0200A3BE0300A1AE0460A0EE0250A01E072D2D950020FE96E000EDA20EA6EE6
:20308000010EEE5E000EEE5AEE5A0FDB250EE66E86DA03E1311D01E159D20A2A5BD2116A4B
:2030A0000D50010803E20D04116EF5DA115007E0010E0C1404E16DDA01E048D2116AD3DAA0
:2030C000EF50096ECBDA03E1311D01E13FD20A2A000E0B225EDA01E13FD238D2020E105C50
:2030E00008E1030E4EDAEE50176EEE50186EEF5007D0E7DA326B3051176E3151186E325122
:20310000196E17EBE6FF18EBE6FF19EBE6FFAAEC50F043E9FCC130F4FDC131F4FEC132F4C5
:20312000040130511C6E31511D6E0F5006E01C500E5C03E20E501C6E1D6A1C500D5C02E24A
:203140009CEB0DF050DA05E00D500E5C02E28EEB0DF00CB004D01DDA01E0F8D1116A126A93
:2031600017EBF6FF18EBF7FF19EBF8FF0800F550096E095010E00D50125C0DE26FDA03E170
:20318000311D01E1E3D10A2A000E0B22122AD950170F55DAEBD7FDD901E1DED1D7D163DA14
:2031A000EE501A6EED501B6E1AEBE6FF1BEBE6FF9CEC50F042E9F3501C6EF4501D6E0F50C0
:2031C00006E01C500E5C03E20E501C6E1D6A1C500D5C02E29CEB0DF006DA05E00D500E5C16
:2031E00002E28EEB0DF00CB004D0D3D901E0AED1116A126A1AEBE9FF1BEBEAFFEF50096E50
:2032000009500FE00D50125C0CE228DA03E1311D01E19CD10A2A000E0B22122A1A2A1B22FE
:20322000E9D7B7D901E198D191D10C8E10040AE1040EA7D9EE50136EEE50146EEE50156E26
:20324000EF5032D0030E105C16E10CAE0CD00BDAEFCF30F40401316B326B336B30AF23D0AE
:20326000316932691FD0FFD9EFCF30F404013051136E146A20D0020E105C0CE10CAE06D002
:20328000030E7FD9B6D932AF0ED00CD0030E79D9B0D909D00CAE0AD014DA326B336B31AF39
:2032A00002D032693369BCD9166E07D00ADA3051136E3151146E156A166A0F5002E1010EDB
:2032C0000E6E1E6A1F6AD950400FE66E000EDA20E66EE552E550436EE750426E416A116A0F
:2032E0000A0E106E0950780A12E0200A10E0280A0CE0200A0AE03F0A06E00D0A02E0200ACD
:2033000008E1020E05D0080E03D0080E0926100E106E0CBE02D00C920C94800E0C1417E096
:20332000163415E3E668E668E668E66842D9B3EC20F0E552E5CF33F4E5CF32F4E5CF31F484
:20334000E7CF30F404016CD9166E2D0E07D00CA202D02B0E03D00CA404D0200E206E1E2A9F
:2033600001D0206A0E5005E1135014101510161061E00401A20E306FB30E316F000E326F37
:2033800083D9AEEC1FF0E552E5CF36F4E5CF35F4E5CF34F4E7CF33F4040130513325F36E3E
:2033A00031513421F46E32513521F86EF4CFF7FFF3CFF6FF0800F550126E580E095C05E1A7
:2033C000610E125C02E3200E125E5ED9ABEC1FF0E552E550166EE550156EE550146EE7501A
:2033E000136E42EBE9FF43EBEAFF4206000E435A12EBEFFF1E2A1350141015101610B9E18E
:203400000CA619D06F0E095C06E10E501E5C13E31E280E6E10D0780E095C09E0580E095C39
:2034200006E0620E095C03E0420E095C04E1020E1F6E01D01E6A100E0C1407E00D500E5C72
:2034400004E20F5002E18DEB0EF00E501E5C03E21E500E5E01D00E6A0E501E241F24D880B3
:203460000D5407E20E500D5CD8801E54D8801F54116E010E0C1406E1115004E08AD866E123
:203480000AD9116A205007E010D920EBE6FF87D802E1311D5BE01F500BE007D9300EE66E07
:2034A0007ED802E1311D52E0D9D802E1311D4EE00E501F5C02E21F500E5E300EE66E0EEB20
:2034C000E6FFDCD843E1422A000E432242EBE9FF43EBEAFFEF50126E125008E0E6D812EB60
:2034E000E6FF5DD8F0E1311DEEE130D052D82EE10E501E2411241F240A262CD01050030ADA
:203500001CE0010A14E0030A07E0ADD8C9D80AEBEEFF0BEBEDFF20D08BD8336B31AF02D02F
:2035200032693369A0D84ED833C4EEFF15D080D831BF326998D846D80FD095D8B1D80AEBB2
:20354000EFFF0AD08BD805E1311D03E1F368F4680BD00A2A000E0B22D950020F70D8CDD404
:203560000AEBF3FF0BEBF4FF7CE9E5CFDAFFE7CFD9FF1200D950020F62D80800F550096EB1
:203580001200005E000E015A00EBE9FF01EBEAFF1200200EE66E11EBE6FF3EEF1BF056ECBB
:2035A00056F043E9F3CF30F4F4CF31F40401F31C120013EBE6FF14EBE6FF15EBE6FF16EBF8
:2035C000E6FF12006DD830C4EEFF31C4EEFF32C4EEFF1200D9CFE6FFDACFE6FFE1CFD9FF54
:2035E000E2CFDAFF12001C500D5C116E54D80F501200EECF30F4EECF31F4EFCF32F4040192
:20360000336B1200EECF30F4EFCF31F4040112000950E66EE66A78EC59F042E9F3501200F5
:203620003051136E3151146E3251156E335112000AEB30F40BEB31F40401326B1200E96EA9
:20364000000EDA20EA6EEF2AEECFF6FF000EEF22EECFF7FFEF22EECFF8FF120026D809EBA4
:20366000E6FFCFEF1AF0020EC1EF1AF00A0E1202F3500924D00F126EBAEF1AF016D859ECF2
:2036800017F044E90009120010EBE6FFE66AE66AE66AD9EF1AF011500A26000E0B2212005B
:2036A000EE50EFCFEAFFE96E120005EBE6FF06EBE6FF1200D8DFEE501C6EED501D6E1D3467
:2036C0001200D1DF02EF1BF0D9CFE6FFE1CFD9FF81E948E8016A026A036A046A056A066AEC
:2036E000220EE66E2AEC58F041E9F350076EF450086E03014D5103014C5D01E1E7D203015E
:203700004C51EA6A370FE96E030EEA22EF50EB0811E003014D5103014C5D0CE0150EE66E29
:2037200003014C29E66E00EC20F041E9E75003014C6FE5D7150EE66E150E0301D8804C554D
:2037400003014D25E66E00EC20F041E9E7500401306F070E0401305D01E2B8D2016A026AB3
:2037600003014C51036E150EE66E050E03014C25E66E00EC20F041E9E750035C14E00350E1
:20378000EA6A370FE96E030EEA22EF50011A000E021A150EE66E0328E66E00EC20F041E97B
:2037A000E750036EE0D7150EE66E050E03014C25E66E00EC20F041E9E750EA6A370FE96E09
:2037C000030EEA22EF50011801E1025001E073D2150EE66E060E03014C25E66E00EC20F0CA
:2037E00041E9E750EA6A370FE96E030EEA22EF50FA0801E060D2150EE66E4CC3E6FF00ECAF
:2038000020F041E9E750EA6A370FE96E030EEA22EF50EB0801E04FD2150EE66E03014C2905
:20382000E66E00EC20F041E9E750EA6A370FE96E030EEA22EF50900801E03DD2150EE66E8B
:20384000020E03014C25E66E00EC20F041E9E750056E066A370E0524E96E030E0620EA6EFB
:20386000EF50270A01E1F3D1030A01E1D3D1070A01E1B4D1020A01E196D1030A01E17BD197
:20388000020A01E15DD1380A01E13FD10F0A01E121D1010A01E103D1030A01E1E5D0010A7B
:2038A00001E1C7D0070A01E1A9D0010A01E18BD0030A6EE0010A51E0480A17E00E0A11E0F2
:2038C000030A01E0EAD1C00EE66ED40EE66E010EE66EE66AE66A6BEC55F045E90301006BAB
:2038E000DDD10301010E006FD9D1C40EE66E090EE66EE66AE66A010EE66E6BEC55F045E990
:20390000010E071801E1085016E1010EE66EE66A010EE66EECEC57F043E9C00EE66ED40EE3
:20392000E66E010EE66EE66AE66A6BEC55F045E90301006B08D0000EE66EE66A010EE66E0A
:20394000ECEC57F043E9010EE66E66EC58F041E9F3CF34F5F4CF35F5A1D10501010E341949
:2039600001E1355114E1150EE66E030E03014C25E66E00EC20F041E9E750EA6A370FE96E4B
:20398000030EEA22EF50E8B08486E8A0849686D10501010E341901E1355114E1150EE66EFA
:2039A000030E03014C25E66E00EC20F041E9E750EA6A370FE96E030EEA22EF50E8B0848CDB
:2039C000E8A0849C6BD10501010E341901E1355114E1150EE66E030E03014C25E66E00EC07
:2039E00020F041E9E750EA6A370FE96E030EEA22EF50E8B08488E8A0849850D10501010E8B
:203A0000341901E1355114E1150EE66E030E03014C25E66E00EC20F041E9E750EA6A370FB4
:203A2000E96E030EEA22EF50E8B0848AE8A0849A35D10501010E341901E1355114E1150E9F
:203A4000E66E030E03014C25E66E00EC20F041E9E750EA6A370FE96E030EEA22EF50E8B0F6
:203A60008382E8A083921AD10501010E341901E1355114E1150EE66E030E03014C25E66EA9
:203A800000EC20F041E9E750EA6A370FE96E030EEA22EF50E8B08380E8A08390FFD0050171
:203AA000010E341901E1355114E1150EE66E030E03014C25E66E00EC20F041E9E750EA6A4B
:203AC000370FE96E030EEA22EF50E8B08386E8A08396E4D00501010E341901E1355114E138
:203AE000150EE66E030E03014C25E66E00EC20F041E9E750EA6A370FE96E030EEA22EF50CB
:203B0000E8B08384E8A08394C9D00501010E341901E1355114E1150EE66E030E03014C2512
:203B2000E66E00EC20F041E9E750EA6A370FE96E030EEA22EF50E8B08184E8A08194AED0CF
:203B40000501010E341901E1355114E1150EE66E030E03014C25E66E00EC20F041E9E750F8
:203B6000EA6A370FE96E030EEA22EF50E8B08188E8A0819893D00501010E341901E1355189
:203B800011E1150EE66E030E03014C25E66E00EC20F041E9E750EA6A370FE96E030EEA2277
:203BA000EF50BB6E7BD00501010E341901E1355114E1150EE66E030E03014C25E66E00EC56
:203BC00020F041E9E750EA6A370FE96E030EEA22EF50E8B08484E8A0849460D00501010EA2
:203BE000341901E1355115E1E66A150EE66E030E03014C25E66E00EC20F041E9E750EA6AC8
:203C0000370FE96E030EEA22EFCFE6FFDAEC58F042E944D00501010E341901E1355116E139
:203C2000010EE66E150EE66E030E03014C25E66E00EC20F041E9E750EA6A370FE96E030E71
:203C4000EA22EFCFE6FFDAEC58F042E927D0150EE66E030E03014C25E66E00EC20F041E90E
:203C6000E750EA6A370FE96E030EEA22EF50550813E1150EE66E040E03014C25E66E00EC31
:203C800020F041E9E750EA6A370FE96E030EEA22EF50AA0801E1FF0001D000D0150EE66EBB
:203CA000070E03014C25E66E00EC20F041E9E75003014C6F0BD0150EE66E03014C29E66EEB
:203CC00000EC20F041E9E75003014C6F49E9E7CFD9FF120043E8D9CFE6FFDACFE6FFE1CF00
:203CE000D9FFE2CFDAFF89E9066A1200F3DF068001D0F0DF01AE83EF1EF0006C011EE86A6A
:203D0000012206B0067E03AE8BEF1EF0026C031EE86A0322067EC3EC1EF003BEADEF1EF05B
:203D200006AE08D0026C031EE86A0322046C051EE86A052206B006D084EB00F085EB01F099
:203D400006A004D082EB00F083EB01F0E552E5CFDAFFE7CFD9FF45E9000C06BE92EF1EF04E
:203D6000E9DFFF0C43E8D9CFE6FFDACFE6FFE1CFD9FFE2CFDAFF89E9066A1200F3DF0680CC
:203D800003D0F0DF01D00682056A046A100EE76ED89002360336043605360050045C015089
:203DA000055805E30050045E0150055A022AE72EF0D706B2120006B006D084EB00F085EB2F
:203DC00001F006A004D082EB00F083EB01F0E552E5CFDAFFE7CFD9FF45E9120044E8D9CF56
:203DE000E6FFDACFE6FFE1CFD9FFE2CFDAFF8CE9096A1200F3DF098001D0F0DF02AE09EFA1
:203E00001FF0006C011E021EE86A0122022209B0097E05AE13EF1FF0036C041E051EE86A45
:203E200004220522097E15EC21F005BE3CEF1FF009AE0BD0036C041E051EE86A04220522BA
:203E4000066C071E081E0722082209B008D086EB00F087EB01F088EB02F009A006D083EBAB
:203E600000F084EB01F085EB02F0E552E5CFDAFFE7CFD9FF47E9000C09BE1AEF1FF0E5DF5F
:203E8000FF0C45E8D9CFE6FFDACFE6FFE1CFD9FFE2CFDAFF8FE90C6A1200F3DF0C8001D08E
:203EA000F0DFE86A03AE5EEF1FF0006C011E021E031E0122022203220CB00C7E07AE69EF49
:203EC0001FF0046C051E061E071E0522062207220C7EB0EC1FF007BE9AEF1FF00CAE0FD054
:203EE000046C051E061E071EE86A052206220722086C091E0A1E0B1E09220A220B220CB0F0
:203F00000AD088EB00F089EB01F08AEB02F08BEB03F00CA008D084EB00F085EB01F086EB7A
:203F200002F087EB03F0E552E5CFDAFFE7CFD9FF49E9000C0CBE70EF1FF0E1DFFF0C45E86A
:203F4000D9CFE6FFDACFE6FFE1CFD9FFE2CFDAFF8FE90C6A1200F3DF0C8003D0F0DF01D063
:203F60000C820B6A0A6A096A086A200EE76ED8900436053606360736083609360A360B360E
:203F80000050085C0150095802500A5803500B5809E30050085E0150095A02500A5A0350F2
:203FA0000B5A042AE72EE4D70CB212000CB00AD088EB00F089EB01F08AEB02F08BEB03F0A0
:203FC0000CA008D084EB00F085EB01F086EB02F087EB03F0E552E5CFDAFFE7CFD9FF49E951
:203FE000120042E8D9CFE6FFDACFE6FFE1CFD9FFE2CFDAFF86E9036A1200F3DF038003D042
:20400000F0DF01D00382026A080EE76ED890013602360050025C02E3026E012AE72EF7D7BC
:2040200003B2120003B081EB00F003A082EB00F0E552E5CFDAFFE7CFD9FF43E9120044E8EE
:20404000D9CFE6FFDACFE6FFE1CFD9FFE2CFDAFF8AE980EB04F081EB05F082EB06F002504B
:204060000402F450016EF350006E0350076E0502F450036EF350026E07500402F3500126D8
:20408000F4500222E86A032206500502F3500126F4500222E86A0322E552E5CFDAFFE7CF21
:2040A000D9FF46E9000C46E8D9CFE6FFDACFE6FFE1CFD9FFE2CFDAFF8EE980EB06F081EB4E
:2040C00007F082EB08F085EB0BF084EB0AF083EB09F003500602F450016EF350006E045036
:2040E0000702F450036EF350026E04500602F3500126F4500222E86A032209500702F35005
:204100000126F4500222E86A032205500602F3500226F450032205500702046AE86A042224
:20412000F3500326F450042209500802F3500226F4500322056AE86A042205220A50080200
:20414000F3500326F4500422E86A05220B500802F3500426F4500522E552E5CFDAFFE7CF59
:20416000D9FF49E9000C44E8D9CFE6FFDACFE6FFE1CFD9FFE2CFDAFF8EE980EB08F081EB8A
:2041800009F082EB0AF083EB0BF004500802F350006EF450016E04500902F3500126000EBD
:2041A000F420026E04500A02F3500226000EF420036E04500B02F350032605500802F350AE
:2041C0000126F4500222000E032205500902F3500226F450032205500A02F35003260650C6
:2041E0000802F3500226F450032206500902F350032607500802F3500326E552E5CFDAFF83
:20420000E7CFD9FF48E9000C44E8D9CFE6FFDACFE6FFE1CFD9FFE2CFDAFF8CE9096A120080
:20422000F3DF098003D0F0DF01D00982086A076A066A180EE76ED890033604360536063605
:20424000073608360050065C015007580250085807E30050065E0150075A0250085A032A9E
:20426000E72EEAD709B2120009B008D086EB00F087EB01F088EB02F009A006D083EB00F004
:2042800084EB01F085EB02F0E552E5CFDAFFE7CFD9FF47E91200D9CFE6FFE1CFD9FF81E949
:2042A00064E8090EE66E66EC58F041E9F350016EF450026E1E0EE66E2AEC58F041E9F350D2
:2042C000036EF450046E020EE66E2AEC58F041E9F350056EF450066E0F0EE66E2AEC58F08E
:2042E00041E9F350076EF450086E270EE66E2AEC58F041E9F350096EF4500A6E2A0EE66E0F
:204300002AEC58F041E9F3500B6EF4500C6E2C0EE66E2AEC58F041E9F3500D6EF4500E6E07
:20432000210EE66E2AEC58F041E9F3500F6EF450106E240EE66E2AEC58F041E9F350116E20
:20434000F450126E0C0EE66E2AEC58F041E9F350136EF450146E156A166A010E011801E110
:20436000025001E0A0D114EC41F0030196053AE1966B0401600E6B6F090E6C6F6D6B6E6BBD
:204380006F6B706B716B726B736B746B756B766B776B786B796B7A6B7B6B7C6B7D6B7E6B05
:2043A000000EE66EE66A0D0EE66EECEC57F043E9000EE66EE66A2D0EE66EAEEC57F043E943
:2043C0005A0EE66EE66A2A0EE66EAEEC57F043E9F40EE66E010EE66E2C0EE66EAEEC57F010
:2043E00043E924D1010E091801E10A5001E01ED11150121001E01AD1000EE66EE66A270E2A
:20440000E66EAEEC57F043E9010E04017F6F806B816F826B836F846B796B7A6B7B6B7C6BFA
:204420007D6B7E6B000EE66EE66A0D0EE66EECEC57F043E9080EE66E25EC59F041E9F3500E
:20444000176EF450186E090EE66E25EC59F041E9F350196EF4501A6EE66A010EE66E17EBD3
:20446000E6FF18EBE6FF1FEC20F00401FE0EE35019246B6F41E9E5501A206C6F6D6B6E6BD4
:204480006F6B706B716B726B736B746B756B766B776B786B200EE66E25EC59F041E9F35022
:2044A0000B6EF4500C6E250EE66E25EC59F041E9F350236EF450246E010E231801E1245070
:2044C00017E0640EE66EE66A2A0EE66EAEEC57F043E9640EE66E200EE66EBFEC58F042E9D0
:2044E000010EE66E250EE66EBFEC58F042E923D00B506E08000E0C5405E3320E0B5C000EE5
:204500000C5810E25A0EE66EE66A2A0EE66EAEEC57F043E95A0EE66E200EE66EBFEC58F06F
:2045200042E909D00BEBE6FF0CEBE6FF2A0EE66EAEEC57F043E9230EE66E25EC59F041E91E
:20454000F3501B6EF4501C6E240EE66E25EC59F041E9F3501D6EF4501E6EE66A010EE66E66
:204560001BEBE6FF1CEBE6FF1FEC20F0FE0EE3501D24156E41E9E5501E20166E15EBE6FF40
:2045800016EBE6FF2D0EE66EAEEC57F043E9210EE66E25EC59F041E9F3501F6EF450206EF0
:2045A000220EE66E25EC59F041E9F350216EF450226EE66A010EE66E1FEBE6FF20EBE6FFBB
:2045C0001FEC20F0FE0EE35021240D6E41E9E55022200E6E0D50DC08050E0E5405E3C80E30
:2045E0000D5C000E0E5818E2F40EE66E010EE66E2C0EE66EAEEC57F043E9010EE66E210EFE
:20460000E66EBFEC58F042E9F40EE66E220EE66EBFEC58F042E909D00DEBE6FF0EEBE6FF9C
:204620002C0EE66EAEEC57F043E900D0020E051801E106500DE18EEC2AF02EEC4CF043ECA3
:2046400026F017EC40F0C4EC04F0E9EC47F02AD0010E04017F6F806B816F826B836F846BBC
:20466000C00EE66ED40EE66E010EE66EE66A050EE66E6BEC55F045E9C00EE66ED40EE66EA6
:20468000010EE66EE66A060EE66E6BEC55F045E9000EE66EE66A2F0EE66EAEEC57F043E9E5
:2046A00043EC26F000D0010E031801E1045016E1020E051801E1065011E1030197050EE1A8
:2046C000976BC00EE66ED40EE66E010EE66EE66A030EE66E6BEC55F045E90CD0035004105B
:2046E00005E0020E051801E1065004E00301010E976F00D0010E031801E104502AE1030E27
:20470000E66E6AEC57F041E9FCC130F4FDC131F4FEC132F4FFC133F40401305131113211E3
:20472000331117E1020E051801E1065012E10F5010100FE1075008100CE11350141009E1A9
:20474000010EE66EE66A050EE66EAEEC57F043E920D00350041014E0010E0F1801E110506F
:204760000FE0010E071801E108500AE0020E051801E1065005E1010E131801E1145009E143
:20478000000EE66EE66A050EE66EAEEC57F043E900D065E9E7CFD9FF120005011B51100AA9
:2047A00001E158D21F0A01E1F2D0030A01E1B5D0070A76E0010A29E0030A1FE0010A0BE02F
:2047C000080A01E05FD20401F66BC10EAD6E0501080E1B6F57D20401F6050BE1DF0E0401B8
:2047E000F715CD0806E1E10EAD6E0501090E1B6F03D00501100E1B6F45D20401F66BCC0E68
:20480000AD6E05010A0E1B6F3DD20401F60544E1CC0E0401F75D40E10F0EAD6E0301FE6BA8
:20482000FF6B04012E0E326F7E0E336F000E346F020EE66EE66AE66A0F0E0301FE19E66EBD
:20484000E66AE66A53EC20F0E552E5CF37F4E5CF36F4E7CF35F4040132513525F36E3351CF
:204860003621F46E34513721F86EF4CFF7FFF3CFF6FF0900F5CF30F40800F5CF31F4FFC328
:2048800038F4396B385130190301FE6F31C4FFF305010B0E1B6F03D00501100E1B6FF2D131
:2048A000FBC3ADFF04012E0E326F7E0E336F000E346F020EE66EE66AE66A0301FE51FB1962
:2048C000E66EE66AE66A53EC20F0E552E5CF37F4E5CF36F4E7CF35F4040132513525F36E7F
:2048E00033513621F46E34513721F86EF4CFF7FFF3CFF6FF0900F5CF30F40800F5CF31F4E6
:20490000FFC338F4396B385130190301FE6F31C4FFF305010C0E1B6FB5D1AD6A04012E0E53
:20492000326F7E0E336F000E346F020EE66EE66AE66AFEC3E6FFE66AE66A53EC20F0E55227
:20494000E5CF37F4E5CF36F4E7CF35F4040132513525F36E33513621F46E34513721F86EF8
:20496000F4CFF7FFF3CFF6FF0900F5CF30F40800F5CF31F4FFC338F4396B3851301903017D
:20498000FE6F31C4FFF305010F0E1B6F7BD10301FD5166E1FAC4E9FFFBC4EAFFEF50AD6E89
:2049A00004012E0E326F7E0E336F000E346F020EE66EE66AE66AFAC4E9FFFBC4EAFFEF50A5
:2049C0000301FE19E66EE66AE66A53EC20F0E552E5CF37F4E5CF36F4E7CF35F4040132511E
:2049E0003525F36E33513621F46E34513721F86EF4CFF7FFF3CFF6FF0900F5CF30F4080013
:204A0000F5CF31F4FFC338F4396B385130190301FE6F31C4FFF30401FA2B000EFB23080E85
:204A2000E66EE66AFAC432F4FBC433F40401400E325F0F0E335B32C4E6FF33C4E6FF79EC5D
:204A40001EF0E552E5CF31F4E7CF30F404013051311105E10301010EFD6F0401F56BF9D003
:204A60000401F5510D0A01E1B6D0010A01E19FD0070A01E18ED0010A01E187D0030A01E18C
:204A80007FD0010A6CE00F0A62E0010A4EE0030A44E0010A3DE0070A28E0010A1FE0030A53
:204AA0000DE0010A01E0D5D00401F66B0301FE1FFF1FAD680401010EF56FCBD00401F605AB
:204AC00009E10301FE510401F75D04E10401020EF56F03D00501100E1B6FBBD00401F66B70
:204AE000AD680401030EF56FB4D00401F6050CE10401FFC330F4316B30510401F75D04E170
:204B00000401040EF56F03D00501100E1B6FA1D0E30EAD6E050EF56F9CD00401F66BC10E04
:204B2000AD6E0401060EF56F94D00401F6050BE1DF0E0401F715CD0806E1E10EAD6E0401C4
:204B4000070EF56F03D00501100E1B6F82D00401F66BCC0EAD6E0401080EF56F7AD00401E0
:204B6000F6050AE1CC0E0401F75D06E1550EAD6E0401090EF56F03D00501100E1B6F69D07D
:204B8000FBC3ADFF0A0EF56F64D0AD6A0B0EF56F60D0070EAD6E140EE66EE66A010EE66EDE
:204BA000BCEC56F043E904010C0EF56F52D0010EE66E45EC57F041E9F3CF30F4F4CF31F463
:204BC00004013051311106E10401F66BAD6804010D0EF56F3ED00401F60537E1AA0E040144
:204BE000F75D33E1E30EAD6E0301FC2BFC51030824E20501010E1A6F05011B6B0401400E3B
:204C0000FA6F0F0EFB6F0301200EFB6FFD6BFC6B000EE66EE66A250EE66EAEEC57F043E9F3
:204C2000A00EE66EBB0EE66E0D0EE66EE66A020EE66E6BEC55F045E907D005011B6B080EEF
:204C40000301FB25FB6FFD6B03D00501100E1B6F00D018D0010EE66EE66A250EE66EAEEC51
:204C600057F043E90501010E1A6F05011B6B0401400EFA6F0F0EFB6F0301200EFB6FFD6B50
:204C8000FC6B00D01200D9CFE6FFE1CFD9FF81E960E8020EE66E2AEC58F041E9F350016E66
:204CA000F450026E2A0EE66E2AEC58F041E9F350036EF450046E090EE66E48EC58F041E9B1
:204CC000F350056EF450066E2F0EE66E2AEC58F041E9F350076EF450086E096A0A6A0B6A7F
:204CE0000C6A0D6A0E6A0F6A106A116A126A136A146A156A166A176A186A196A1A6A1B6ADC
:204D00001C6A1D6A1E6A020E011801E1025005E0010E011801E1025018E1030EE66E48ECCE
:204D200058F041E9F3501F6EF450206E0A0EE66EE66A1FEBE6FF20EBE6FF76EC1EF0E5521D
:204D4000E550206EE7501F6E02D01F6A206A0401C80E7D5D000E7E5901E2F1D0C80EE66E7F
:204D6000E66AE66AE66A79C4E6FF7AC4E6FF7BC4E6FF7CC4E6FFABEC1FF0E552E5CF33F4FD
:204D8000E5CF32F4E5CF31F4E7CF30F404013051156E3151166E010EE66EE66A0D0EE66E55
:204DA000ECEC57F043E915EBE6FF16EBE6FF2E0EE66EAEEC57F043E9D00E0724176E070E9D
:204DC0000820186E3C0EF66EAC0EF76E000EF86E17500900F55C18500A00F5580CE33C0E2B
:204DE000F66EAC0EF76E000EF86E0900F550176E0A00F550186E03EBE6FF04EBE6FF000E5F
:204E0000E66EE66A17EBE6FF18EBE6FF41EC12F046E9F350196EF4501A6E03EBE6FF04EB69
:204E2000E6FF19EBE6FF1AEBE6FF15EBE6FF16EBE6FF41EC12F046E9F3500F6EF450106E0F
:204E40000FEBE6FF10EBE6FF060EE66EAEEC57F043E903EBE6FF04EBE6FFE66AE66A6BC4A8
:204E6000E6FF6CC4E6FFE66AE66AB3EC20F0E552E5CF33F4E5CF32F4E5CF31F4E7CF30F44A
:204E800004013051096E31510A6E32510B6E33510C6E0FEBE6FF10EBE6FFE66AE66A09EBCE
:204EA000E6FF0AEBE6FF0BEBE6FF0CEBE6FFB3EC20F0E552E5CF33F4E5CF32F4E5CF31F408
:204EC000E7CF30F404013051096E31510A6E32510B6E33510C6E100EE66E270EE66EE66ABC
:204EE000E66A09EBE6FF0AEBE6FF0BEBE6FF0CEBE6FFABEC1FF0E552E5CF33F4E5CF32F466
:204F0000E5CF31F4E7CF30F404013051096E31510A6E32510B6E33510C6E09EBE6FF0AEB1F
:204F2000E6FF290EE66EAEEC57F043E90401796B7A6B7B6B7C6B04017D6B7E6BCED02C0EAB
:204F4000E66E2AEC58F041E9F3500D6EF4500E6E0A0EE66EE66AE66AE66A05EBE6FF06EBD5
:204F6000E6FFE66AE66AB3EC20F0E552E5CF33F4E5CF32F4E5CF31F4E7CF30F404013051D8
:204F8000116E3151126E3251136E3351146E1FEB34F420EB35F4366B376B35AF02D0366988
:204FA000376934C4E6FF35C4E6FF36C4E6FF37C4E6FF0DEBE6FF0EEBE6FFE66AE66AB3ECDD
:204FC00020F0E552E5CF33F4E5CF32F4E5CF31F4E7CF30F4040130511B6E31511C6E325184
:204FE0001D6E33511E6EE80EE66E030EE66EE66AE66A1BEBE6FF1CEBE6FF1DEBE6FF1EEBFA
:20500000E6FF4DEC1FF0E552E5CF33F4E5CF32F4E5CF31F4E7CF30F4040130511B6E315133
:205020001C6E32511D6E33511E6E11EB34F412EB35F413EB36F414EB37F4D9501B0FE96E82
:20504000DACFEAFFEE50345D306FEE503559316FEE503659326FEE503759336F3051116E06
:205060003151126E3251136E3351146E0A0EE66EE66AE66AE66A11EBE6FF12EBE6FF13EB07
:20508000E6FF14EBE6FFABEC1FF0E552E5CF33F4E5CF32F4E5CF31F4E7CF30F4040130517C
:2050A000116E3151126E3251136E3351146ED950110FE96EDACFEAFF04017951EE24796F6A
:2050C0007A51EE207A6F7B51EE207B6F7C51EE207C6F04017D2B000E7E2361E9E7CFD9FF50
:2050E0001200D9CFE6FFE1CFD9FF81E965E8040EE66E66EC58F041E9F350016EF450026E42
:20510000050EE66E66EC58F041E9F350036EF450046E060EE66E66EC58F041E9F350056E18
:20512000F450066E090EE66E66EC58F041E9F350076EF450086E0D0EE66E2AEC58F041E91F
:20514000F350096EF4500A6E090EE66E2AEC58F041E9F3500B6EF4500C6E0B0EE66E2AECE9
:2051600058F041E9F3500D6EF4500E6E130EE66E2AEC58F041E9F3500F6EF450106E0E0EA4
:20518000E66E2AEC58F041E9F350116EF450126E090EE66E48EC58F041E9F350136EF45094
:2051A000146E0A0EE66E2AEC58F041E9F350156EF450166E1C0EE66E2AEC58F041E9F350A2
:2051C000176EF450186E1B0EE66E2AEC58F041E9F350196EF4501A6E0B0EE66E48EC58F0FC
:2051E00041E9F3501B6EF4501C6EE66A48EC58F041E9F3501D6EF4501E6E0C0EE66E48ECB5
:2052000058F041E9F3501F6EF450206E010EE66E66EC58F041E9F350216EF450226E020E9D
:20522000E66E66EC58F041E9F350236E246A256A2150221001E04CD1230401E07DD011500E
:20524000121001E079D00550061076E1010E071801E1085071E11E3404E31D503C08F60E98
:205260001E546AE209500A1067E10B500C1064E10D500E1061E10F5010105EE115501610F3
:205280005BE11750181003E019501A1055E113EB30F414EB31F40401326B336B220E305D54
:2052A0000B0E3159000E3259000E33590CE20101010EF81901E1F95106E1010EFA6FFB6B17
:2052C000F86BF96B1DD013EB30F414EB31F40401326B336BD880220E30550B0E3155000EDA
:2052E0003255000E33550CE20101010EF81901E1F95106E1FA6BFB6B010EF86FF96B00D0F9
:205300000101F851F91118E1010EFA1901E1FB5113E1010EE66EE66A050EE66EECEC57F0C2
:2053200043E9EFEC42F0000EE66EE66A0C0EE66ECDEC57F043E900D0230449E1010E05189B
:2053400001E1065044E11150121041E11E3404E31D503C08F60E1E543AE2010E0101F86F57
:20536000F96BFA6BFB6B10EC3EF0000EE66EE66A0A0EE66EAEEC57F043E9010EE66EE66AF6
:20538000020EE66EAEEC57F043E9010EE66EE66A040EE66EECEC57F043E9010EE66EE66A85
:2053A000070EE66EECEC57F043E91C3420501C1804E61B501F5C1C50205809E21BEBE6FFBB
:2053C0001CEBE6FF0C0EE66ECDEC57F043E9040EE66E66EC58F041E9F350016EF450026EB7
:2053E000050EE66E66EC58F041E9F350036EF450046E1C3404E21B50DC08050E1C5405E229
:20540000010E011801E1025005E0010E031801E1045009E1100EE66E270EE66E070EE66E9D
:20542000BCEC56F043E9070EE66E45EC57F041E9F350246EF450256E010E091801E10A502F
:2054400026E0010E0B1801E10C5021E0010E0D1801E10E501CE0010E0F1801E1105017E0F6
:20546000230415E12450251012E0D8801E5004E73C0E1D5CF60E1E580AE3010E171801E179
:20548000185025E1010E191801E11A5020E18AEC59F0010E011801E1025019E1000EE66E9A
:2054A000E66A020EE66EAEEC57F043E9000EE66EE66A070EE66EECEC57F043E9000EE66E63
:2054C000E66A040EE66EECEC57F043E900D01ED00101F651F7111AE18AEC59F0000EE66EA0
:2054E000E66A020EE66EAEEC57F043E9000EE66EE66A070EE66EECEC57F043E9000EE66E23
:20550000E66A040EE66EECEC57F043E921EBF6F122EBF7F166E9E7CFD9FF1200D9CFE6FF26
:20552000E1CFD9FF81E94CE8030EE66E48EC58F041E9F350016EF450026E090EE66E48EC35
:2055400058F041E9F350036EF450046E2C0EE66E2AEC58F041E9F350056EF450066E076A7A
:20556000086A096A0A6A0B6A0C6A02340DE3E668E66801EBE6FF02EBE6FF1FEC20F0E55230
:20558000E550026EE750016E0401010E7F1901E1805114E17F6B806BE00EE66E2E0EE66EC5
:2055A000150EE66EBCEC56F043E90401DD6BDE6BDF6BE06BE169E269E369E469150EE66E8A
:2055C00045EC57F041E9F3CF30F4F4CF31F404013051311101E01BD11B0EE66E45EC57F0D1
:2055E00041E9F3CF32F4F4CF33F404013251331101E00DD11C0EE66E45EC57F041E9F3CF42
:2056000034F4F4CF35F404013451351101E0FFD0E00EE66E2E0EE66E150EE66EBCEC56F0BF
:2056200043E90401E351DF5D0401306F0401E451E0590401316F3051076E3151086E096AAC
:205640000A6AA00EE66E860EE66E010EE66EE66A07EBE6FF08EBE6FF09EBE6FF0AEBE6FFD7
:20566000B3EC20F0E552E5CF33F4E5CF32F4E5CF31F4E7CF30F404013051076E3151086EE9
:205680003251096E33510A6E0401E151DD5D0401346F0401E251DE590401356F34C4E6FF06
:2056A00035C4E6FFE66AE66A07EBE6FF08EBE6FF09EBE6FF0AEBE6FFABEC1FF0E552E5CF79
:2056C00033F4E5CF32F4E5CF31F4E7CF30F404013051076E3151086E3251096E33510A6E2D
:2056E0000750DC08050E0854000E0954000E0A5407E2DC0E076E050E086E096A0A6A0FD092
:20570000C80E075C000E0858000E0958000E0A5806E2C80E076E086A096A0A6A00D005EBB7
:2057200030F406EB31F4030E3103F3CF31F43003F3CF30F4F4503127326B336BD950070FD4
:20574000E96EDACFEAFFEE503027EE503123EE503223EE5033233051076E3151086E3251A1
:20576000096E33510A6E040EE66EE66AE66AE66A07EBE6FF08EBE6FF09EBE6FF0AEBE6FFFE
:20578000ABEC1FF0E552E5CF33F4E5CF32F4E5CF31F4E7CF30F404013051076E3151086ED1
:2057A0003251096E33510A6E87EB0BF088EB0CF00CEBE6FF210EE66EBFEC58F042E9E66A4A
:2057C000010EE66E0BEBE6FF0CEBE6FFC1EC1EF0E552E5CF31F4E7CF30F430C4E6FF220E01
:2057E000E66EBFEC58F042E907EBE6FF08EBE6FF2C0EE66EAEEC57F043E90401DD6BDE6B57
:20580000DF6BE06BE169E269E369E46959D00401E151015CE25102580FE201EBE1F402EBDC
:20582000E2F4DF6BE06BF40EE66E010EE66E1C0EE66EBCEC56F043E91C0EE66E45EC57F0B6
:2058400041E9F3CF30F4F4CF31F40401305131110AE004010350DF5D0450E05904E203EBA9
:20586000DFF404EBE0F404010150DD5D0250DE5910E201EBDDF402EBDEF4F40EE66E010EA6
:20588000E66E1B0EE66EBCEC56F043E90401E369E4691B0EE66E45EC57F041E9F3CF30F47A
:2058A000F4CF31F40401305131110AE00401E351035CE451045804E203EBE3F404EBE4F4B3
:2058C0004DE9E7CFD9FF1200D9CFE6FFE1CFD9FF85E954E8230E056E066A0A0E076E086A20
:2058E000096A0A6A0B6A0C6A0D6A0E6A0F6A106A156A166A176A186A02EB34F403EB35F4C6
:205900000401366B376B00EB38F401EB39F43A6B3B6B3851345D306F39513559316F3A51C8
:205920003659326F3B513759336F30510D6E31510E6E32510F6E3351106E05EBE6FF06EBB7
:20594000E6FFE66AE66A0DEBE6FF0EEBE6FF0FEBE6FF10EBE6FFB3EC20F0E552E5CF33F487
:20596000E5CF32F4E5CF31F4E7CF30F404013051096E31510A6E32510B6E33510C6E640E37
:20598000E66EE66AE66AE66A09EBE6FF0AEBE6FF0BEBE6FF0CEBE6FF4DEC1FF0E552E5CF26
:2059A00033F4E5CF32F4E5CF31F4E7CF30F404013051096E31510A6E32510B6E33510C6E42
:2059C000800EE66E020EE66EE66AE66A800EE66EFD0EE66EE668E66809EBE6FF0AEBE6FF51
:2059E0000BEBE6FF0CEBE6FF56EC53F04CE9FCC130F4FDC131F4FEC132F4FFC133F40401A1
:205A00003051096E31510A6E32510B6E33510C6EE80EE66E030EE66EE66AE66AE5C4E6FFBD
:205A2000E6C4E6FFE7C4E6FFE8C4E6FFB3EC20F0E552E5CF33F4E5CF32F4E5CF31F4E7CF8C
:205A400030F407EBE6FF08EBE6FFE66AE66A0DEBE6FF0EEBE6FF0FEBE6FF10EBE6FFB3ECBA
:205A600020F0E552E5CF37F4E5CF36F4E5CF35F4E7CF34F404013451302735513123365125
:205A800032233751332330C4E5F431C4E6F432C4E7F433C4E8F4E80EE66E030EE66EE66A94
:205AA000E66AE5C4E6FFE6C4E6FFE7C4E6FFE8C4E6FF4DEC1FF0E552E5CFE8F4E5CFE7F4BA
:205AC000E5CFE6F4E7CFE5F4800EE66E020EE66EE66AE66AE66AE66AE66AE66AE5C4E6FFF5
:205AE000E6C4E6FFE7C4E6FFE8C4E6FF56EC53F04CE9FCC1E5F4FDC1E6F4FEC1E7F4FFC1B4
:205B0000E8F409EB30F40AEB31F40BEB32F40CEB33F40401E551040130270401E651040165
:205B200031230401E751040132230401E851040133233051156E3151166E3251176E33514B
:205B4000186ED950150FE96EDACFEAFF0401E951EE5C0401306F0401EA51EE580401316F31
:205B60000401EB51EE580401326F0401EC51EE580401336F3051116E3151126E3251136EC3
:205B80003351146E143408E211500908000E1254000E1354000E14540CE3D880145008E762
:205BA000F70E115CFF0E1258FF0E1358FF0E145825E211EB30F412EB31F413EB32F414EB9F
:205BC00033F4E90EE96E040EEA6EEE503027EE503123EE503223EE5033233051156E315112
:205BE000166E3251176E3351186E15EBE9F416EBEAF417EBEBF418EBECF409D00401E95177
:205C0000156EEA51166EEB51176EEC51186E400EE66EE66AE66AE66A0A0EE66EE66AE66A20
:205C2000E66AE66EE66AE66AE66A15EBE6FF16EBE6FF17EBE6FF18EBE6FF4DEC1FF056ECAC
:205C400053F04CE9FCC130F4FDC131F4FEC132F4FFC133F404013051156E3151166E3251AA
:205C6000176E3351186E155000D055E9E7CFD9FF1200D9CFE6FFE1CFD9FF84E94AE8046A60
:205C8000056A066A076A086A096A0A6A0B6A0C6A0D6A0050010A01E1DBD0010A01E0B0D1A4
:205CA0000150D108030E025407E2480E046EF40E056E06680768CBD0630E015C000E02587F
:205CC00007E2400E046E1F0E056E066A076ABFD00CEBE9FF0DEBEAFF020ED890E936EA3694
:205CE000E806FBE1840EE926020EEA22EE50015CED50025804E20C2A000E0D22E9D70C04C2
:205D0000E96E000E0D58EA6E020ED890E936EA36E806FBE1840EE926020EEA22EECF36F43C
:205D2000EFCF37F40CEBE9FF0DEBEAFF020ED890E936EA36E806FBE1840EE926020EEA227C
:205D4000EE500401365D346FEE503759356F34C4E6FF35C4E6FFE66AA00EE66E860EE66E63
:205D6000010EE66EFAEC1EF0E552E5CF32F4E5CF31F4E7CF30F40401336B32BF3369305157
:205D8000086E3151096E32510A6E33510B6E640EE66EE66AE66AE66A0C04E96E000E0D580C
:205DA000EA6E020ED890E936EA36E806FBE1840EE926020EEA2204010150EE5C346F0250B8
:205DC000ED58356F34C4E6FF35C4E6FFE66AE66A08EBE6FF09EBE6FF0AEBE6FF0BEBE6FF19
:205DE000B3EC20F04DEC1FF0E552E5CF33F4E5CF32F4E5CF31F4E7CF30F40C04E96E000E98
:205E00000D58EA6E020ED890E936EA36E806FBE1840EE926020EEA22020EE926000EEA224E
:205E2000EECF36F4EFCF37F40401386B396B3651302737513123385132233951332330514D
:205E4000046E3151056E3251066E3351076ED8D00150AA08030E025407E2480E046EF40E26
:205E6000056E06680768CBD0920E015C000E025807E2400E046E1F0E056E066A076ABFD019
:205E80000CEBE9FF0DEBEAFF020ED890E936EA36E806FBE1B40EE926020EEA22EE50015C39
:205EA000ED50025804E20C2A000E0D22E9D70C04E96E000E0D58EA6E020ED890E936EA3649
:205EC000E806FBE1B40EE926020EEA22EECF36F4EFCF37F40CEBE9FF0DEBEAFF020ED89003
:205EE000E936EA36E806FBE1B40EE926020EEA22EE500401365D346FEE503759356F34C4C9
:205F0000E6FF35C4E6FFE66AA00EE66E860EE66E010EE66EFAEC1EF0E552E5CF32F4E5CF68
:205F200031F4E7CF30F40401336B32BF33693051086E3151096E32510A6E33510B6E640ED8
:205F4000E66EE66AE66AE66A0C04E96E000E0D58EA6E020ED890E936EA36E806FBE1B40E88
:205F6000E926020EEA2204010150EE5C346F0250ED58356F34C4E6FF35C4E6FFE66AE66A1D
:205F800008EBE6FF09EBE6FF0AEBE6FF0BEBE6FFB3EC20F04DEC1FF0E552E5CF33F4E5CFDE
:205FA00032F4E5CF31F4E7CF30F40C04E96E000E0D58EA6E020ED890E936EA36E806FBE155
:205FC000B40EE926020EEA22020EE926000EEA22EECF36F4EFCF37F40401386B396B3651F8
:205FE00030273751312338513223395133233051046E3151056E3251066E3351076E00D008
:2060000004EBF3FF05EBF4FF00D04BE9E7CFD9FF1200D9CFE6FFE1CFD9FF84E944E8046AFC
:20602000056A066A076A0050060A01E16DD1030A01E130D1010A01E1F3D0070A01E1B6D077
:20604000010A01E179D0030A3DE0010A01E096D101EBE6FF02EBE6FFE66AE66A130EE66ED5
:206060000E0EE66EE66AE66AB3EC20F0E552E5CF33F4E5CF32F4E5CF31F4E7CF30F40401BD
:206080003051046E3151056E3251066E3351076E04EB30F405EB31F406EB32F407EB33F4D0
:2060A0000A0ED8903333323331333033E806F9E104013051046E3151056E3251066E33519E
:2060C000076E5CD101EBE6FF02EBE6FFE66AE66A130EE66E0E0EE66EE66AE66AB3EC20F0A7
:2060E000E552E5CF33F4E5CF32F4E5CF31F4E7CF30F404013051046E3151056E3251066E1D
:206100003351076E04EB30F405EB31F406EB32F407EB33F40A0ED89033333233313330331C
:20612000E806F9E104013051046E3151056E3251066E3351076E22D101EBE6FF02EBE6FF24
:20614000E66AE66AE70EE66E0C0EE66EE66AE66AB3EC20F0E552E5CF33F4E5CF32F4E5CFF9
:2061600031F4E7CF30F404013051046E3151056E3251066E3351076E04EB30F405EB31F41B
:2061800006EB32F407EB33F40A0ED8903333323331333033E806F9E104013051046E31517B
:2061A000056E3251066E3351076EE8D001EBE6FF02EBE6FFE66AE66A580EE66E020EE66E63
:2061C000E66AE66AB3EC20F0E552E5CF33F4E5CF32F4E5CF31F4E7CF30F404013051046ED9
:2061E0003151056E3251066E3351076E04EB30F405EB31F406EB32F407EB33F40A0ED890E2
:206200003333323331333033E806F9E104013051046E3151056E3251066E3351076EAED0C9
:2062200001EBE6FF02EBE6FFE66AE66A580EE66E020EE66EE66AE66AB3EC20F0E552E5CFC3
:2062400033F4E5CF32F4E5CF31F4E7CF30F404013051046E3151056E3251066E3351076EAD
:2062600004EB30F405EB31F406EB32F407EB33F40A0ED8903333323331333033E806F9E1EC
:2062800004013051046E3151056E3251066E3351076E74D001EBE6FF02EBE6FFE66AE66A9A
:2062A000E70EE66E0C0EE66EE66AE66AB3EC20F0E552E5CF33F4E5CF32F4E5CF31F4E7CF5D
:2062C00030F404013051046E3151056E3251066E3351076E04EB30F405EB31F406EB32F47E
:2062E00007EB33F40A0ED8903333323331333033E806F9E104013051046E3151056E32513B
:20630000066E3351076E3AD001EBE6FF02EBE6FFE66AE66AE70EE66E0C0EE66EE66AE66A6C
:20632000B3EC20F0E552E5CF33F4E5CF32F4E5CF31F4E7CF30F404013051046E3151056E22
:206340003251066E3351076E04EB30F405EB31F406EB32F407EB33F40A0ED89033333233AA
:2063600031333033E806F9E104013051046E3151056E3251066E3351076E00D004EBF3FF00
:2063800005EBF4FF00D045E9E7CFD9FF1200D9CFE6FFE1CFD9FF81E958E8050EE66E48EC22
:2063A00058F041E9F350016EF450026EE66A48EC58F041E9F350036EF450046E190EE66E2A
:2063C0002AEC58F041E9F350056EF450066E160EE66E2AEC58F041E9F350076EF450086E55
:2063E000010EE66E66EC58F041E9F350096EF4500A6E200EE66E2AEC58F041E9F3500B6E3A
:20640000F4500C6E1F0EE66E2AEC58F041E9F3500D6EF4500E6E0F6A106A116A126A136AD0
:20642000146A800E156E166AE10E176E186AD890025004E6700E015C170E025805E3700EF3
:20644000016E170E026E0CD0023404E20150C408090E025405E3C40E016E090E026E00D036
:20646000D890045004E6A00E035C0F0E045805E3A00E036E0F0E046E0CD0043404E203500D
:20648000D008070E045405E3D00E036E070E046E00D0640EE66EE66AE66AE66A15EBE6FF8E
:2064A00016EBE6FFE66AE66A0401C40E015C346F090E0258356F366B376B35AF02D03669D2
:2064C000376934C4E6FF35C4E6FF36C4E6FF37C4E6FFB3EC20F0ABEC1FF0E552E5CF33F43B
:2064E000E5CF32F4E5CF31F4E7CF30F4B80E040130270B0E3123000E322333233051116EC7
:206500003151126E640EE66EE66AE66AE66A17EBE6FF18EBE6FFE66AE66AD00E035C346F74
:20652000070E0458356F366B376B35AF02D03669376934C4E6FF35C4E6FF36C4E6FF37C479
:20654000E6FFB3EC20F0ABEC1FF0E552E5CF33F4E5CF32F4E5CF31F4E7CF30F4B80E040197
:2065600030270B0E3123000E322333233051136E3151146E1350115C1450125823E3030EE3
:20658000E66EE66A11EB32F412EB33F4010ED89032373337E806FBE10401F3510401322558
:2065A000306F0401F45104013321316F30C4E6FF31C4E6FFBEEC1EF0E552E5CFF4F4E7CF05
:2065C000F3F422D0030EE66EE66A13EB32F414EB33F4010ED89032373337E806FBE10401CA
:2065E000F35104013225306F0401F45104013321316F30C4E6FF31C4E6FFBEEC1EF0E55277
:20660000E5CFF4F4E7CFF3F40401A00EF35D0F0EF45904E2A00EF36F0F0EF46FCFEC50F063
:2066200009500A1038E1010E0D1801E10E5007E1010E0B1801E10C5002E1BB6A2BD0010EF0
:20664000051801E1065005E0010E071801E1085003E1400EBB6E1ED0F3C4E6FFF4C4E6FF16
:20666000080EE66EECEC57F043E9110EE66E48EC58F041E9F3500F6EF450106E0FEBE6FFEB
:2066800010EBE6FFF3C4E6FFF4C4E6FF64EC2CF044E9BB6E00D059E9E7CFD9FF1200D9CFC5
:2066A000E6FFE1CFD9FF81E94CE8170EE66E2AEC58F041E9F350016EF450026E180EE66EEE
:2066C0002AEC58F041E9F350036EF450046E110EE66E2AEC58F041E9F350056EF450066E5F
:2066E000020EE66E66EC58F041E9F350076EF450086E0C0EE66E66EC58F041E9F350096E14
:20670000F4500A6E060EE66E48EC58F041E9F3500B6EF4500C6E050122514FE10150021029
:206720004CE1010E071801E1085010E005012A512B110CE1010E2A6F2B6BD00EE66E070EA5
:20674000E66E130EE66EBCEC56F043E9130EE66E45EC57F041E9F3CF30F4F4CF31F404016C
:206760003051311129E1010E071801E1085024E0010E076E086A07EBE6FF08EBE6FF020E2B
:20678000E66EECEC57F043E9010EE66EE66A030EE66EAEEC57F043E9000EE66EE66A030E72
:2067A000E66EECEC57F043E9000EE66EE66A020EE66EAEEC57F043E9C3D0010E011801E17A
:2067C000025008E1225106E1010E071801E1085001E1B6D009500A1063E10501235160E1E2
:2067E000035004105DE1020E071801E1085022E005012A512B111EE1D00E0B5C070E0C580F
:206800000DE3010E2A6F2B6BE80EE66E030EE66E130EE66EBCEC56F043E90CD0010E2A6F88
:206820002B6BD00EE66E070EE66E130EE66EBCEC56F043E9130EE66E45EC57F041E9F3CFBF
:2068400030F4F4CF31F404013051311128E1020E071801E1085023E0020E076E086A07EB06
:20686000E6FF08EBE6FFE66EECEC57F043E9020EE66EE66A030EE66EAEEC57F043E9000E88
:20688000E66EE66A030EE66EECEC57F043E9000EE66EE66A020EE66EAEEC57F043E950D061
:2068A000010E031801E1045009E10501235106E1020E071801E1085001E142D0030E0718A0
:2068C00001E1085010E005012A512B110CE1010E2A6F2B6BD00EE66E070EE66E130EE66E96
:2068E000BCEC56F043E9130EE66E45EC57F041E9F3CF30F4F4CF31F404013051311120E1D0
:20690000030E071801E108501BE0030E076E086A07EBE6FF08EBE6FF020EE66EECEC57F0E8
:2069200043E9030EE66EE66AE66EAEEC57F043E9010EE66EE66A030EE66EECEC57F043E9B2
:20694000130EE66E45EC57F041E9F3CF30F4F4CF31F404013051311109E105012A6B2B6B6F
:2069600007EBE6FF24EC4AF041E914D0000EE66EE66A030EE66EAEEC57F043E9000EE66E62
:20698000E66A020EE66EECEC57F043E9E66A24EC4AF041E94DE9E7CFD9FF1200D9CFE6FFD1
:2069A000E1CFD9FF81E942E8070EE66E2AEC58F041E9F350016EF450026E0150021036E1EA
:2069C0000501010E0A1901E10B5130E1000EE66EE66A090EE66EAEEC57F043E9000EE66EA4
:2069E000E66A0D0EE66EAEEC57F043E9000EE66EE66A0B0EE66EAEEC57F043E9000EE66E3D
:206A0000E66A0C0EE66EAEEC57F043E9000EE66EE66A0A0EE66EAEEC57F043E9010EE66E1D
:206A2000E66A260EE66EAEEC57F043E901EB0AF502EB0BF50501085109110DE1B80EE66E18
:206A40000B0EE66E190EE66EBCEC56F043E9010E0501086F096B190EE66E45EC57F041E917
:206A6000F3CF30F4F4CF31F404013051311105E1010E0501066F076BA8D0000EE66EE66A74
:206A8000110EE66EAEEC57F043E9000EE66EE66A120EE66EAEEC57F043E9000EE66EE66A91
:206AA000070EE66EAEEC57F043E9000EE66EE66A080EE66EAEEC57F043E9000EE66EE66A85
:206AC000130EE66EAEEC57F043E9000EE66EE66A140EE66EAEEC57F043E9000EE66EE66A4D
:206AE000090EE66EAEEC57F043E9000EE66EE66A0D0EE66EAEEC57F043E9000EE66EE66A3E
:206B0000150EE66EAEEC57F043E9000EE66EE66A160EE66EAEEC57F043E9000EE66EE66A08
:206B20001A0EE66EAEEC57F043E9000EE66EE66A170EE66EAEEC57F043E9000EE66EE66AE2
:206B4000180EE66EAEEC57F043E9000EE66EE66A1C0EE66EAEEC57F043E9000EE66EE66ABF
:206B60000A0EE66EAEEC57F043E9000EE66EE66A0B0EE66EAEEC57F043E9000EE66EE66ABE
:206B80000C0EE66EAEEC57F043E9000EE66EE66A190EE66EAEEC57F043E9000EE66EE66A8E
:206BA0001B0EE66EAEEC57F043E9000EE66EE66A0F0EE66EAEEC57F043E9000EE66EE66A69
:206BC000210EE66EAEEC57F043E90501010E061901E1075128E1E7EC4EF031EC4BF09AECBF
:206BE00049F02EEC55F052EC4FF008EC4EF0A7EC55F0A5EC46F0ADEC4AF078EC51F094ECB7
:206C000044F0FEEC45F0EFEC54F056EC45F06EEC54F0BBEC52F089EC56F0E6EC53F00AEC3E
:206C200053F0E3EC55F043E9E7CFD9FF1200D9CFE6FFE1CFD9FF81E942E8026A03014F05C4
:206C400001E03AD14F6B03014E6B016A03010151011A0251011AD4C303F30351011AD3C3F5
:206C600004F30451011A05CF05F30551011A06CF06F30651011AD6C307F30751011AD5C392
:206C800008F30851011AE4C309F30951011AE3C30AF30A51011AD8C30BF30B51011AD7C3AA
:206CA0000CF30C51011ADAC30DF30D51011AD9C30EF30E51011AF0C30FF30F51011AEFC34E
:206CC00010F31051011ADEC311F31151011ADDC312F31251011AE0C313F31351011ADFC326
:206CE00014F31451011AE2C315F31551011AE1C316F31651011AE6C317F31751011AE5C3D2
:206D000018F31851011A8350010B800DF3CF36F48350020B01E0010E400DF3CF35F48350B1
:206D2000040B01E0010E200DF3CF34F48350080B01E0010E100DF3CF33F48150040B01E0A0
:206D4000010E080DF3CF32F48150080B01E0010E040DF3CF31F48150100B01E0010E020D70
:206D6000F3CF30F48450040B01E0010E040130253125322533253425352536250301196F61
:206D80001951011A8150020B01E0010E200DF3CF34F48150010B100DF3CF33F48450080BBF
:206DA00001E0010E080DF3CF32F48450100B01E0010E040DF3CF31F48450200B01E0010E20
:206DC000020DF3CF30F48450400B01E0010E04013025312532253325342503011A6F1A51FF
:206DE000011A550E1B6F1B51011AAA0E1C6F1C51011A550E1D6F1D51011AAA0E1E6F1E510D
:206E0000011A550E1F6F1F51011AAA0E206F2051011AF6C321F32151011AF5C322F322516E
:206E2000011AE8C323F32351011AE7C324F32451011A59C025F32551011A58C026F326512C
:206E4000011A5BC027F32751011A5AC028F32851011A54C029F32951011A09C02AF32A5160
:206E6000011A08C02BF32B51011A0CC02CF32C51011A5DC02DF32D51011A5CC02EF32E5165
:206E8000011A51C02FF32F51011A50C030F33051011A53C031F33151011A52C032F33251AC
